:1000000070C08AC089C088C087C086C085C084C0CF
:1000100083C082C081C080C07FC07EC07DC07CC0E4
:100020007BC07AC079C09DC0B4C0CBC0E2C0F9C06B
:1000300010C127C13EC155C16CC113CC17CC16CC21
:1000400015CC14CC13CC12CC11CC10CC0FCC0ECCC4
:100050000DCC0CCC0BCC0ACC09CC08CC07CC06CCF4
:1000600005CC04CC03CC02CC01CC00CCFFCBFECB26
:10007000FDCBFCCBD5CB43CB64CBF8CBE4CBF6CBE1
:10008000F5CBF4CBF3CBF2CBF1CBF0CBEFCBEECB8C
:10009000EDCBECCBEBCBDCCBE9CB81CBE7CBE6CB31
:1000A0009DCBE4CBE3CBE2CBE1CBE0CBDFCBDECB34
:1000B000DDCBDCCBA2CB23CB2ACBD8CBC4CBD6CBCE
:1000C000D5CBD4CBD3CBD2CBD1CBD0CBCFCBCECB4C
:1000D000CDCBCCCBCBCBBCCBC9CB51CBC7CBC6CB01
:1000E0006DCB11241FBECFE5D4E0DEBFCDBF12E043
:1000F000A0E6B0E0E0E0FAE102C005900D92A6377C
:10010000B107D9F712E0A6E7B2E001C01D92AF3700
:10011000B107E1F763D772CC73CF0F931F93CF93DF
:10012000DF93082F192F862F880F880F880F805C88
:1001300059D8C02FD12F18E0899190E0FAD81150EA
:10014000D9F7DF91CF911F910F910895CF93C62FCB
:10015000E82FF0E0EA30F10508F0F2C0ED5EFF4F65
:10016000099481E055D880E090E0E3D881E090E008
:10017000E0D882E090E0DDD882E06C2F49D883E0BF
:1001800090E0D7D884E090E0D4D885E090E0D1D852
:10019000D7C081E03DD880E290E0CBD880E290E00B
:1001A000C8D88FEF90E0C5D882E06C2F31D880E2BC
:1001B00090E0BFD880E290E0BCD88FEF90E0B9D853
:1001C000BFC081E025D886E090E0B3D886E090E01B
:1001D000B0D882E090E0ADD882E06C2F19D883E0EF
:1001E00090E0A7D887E090E0A4D887E090E0A1D87D
:1001F000A7C081E00DD886E090E09BD886E090E033
:1002000098D882E090E095D882E06C2F01D887E002
:1002100090E08FD887E090E08CD885E090E089D896
:100220008FC081E0F5D783E090E083D884E090E050
:1002300080D882E090E07DD882E06C2FE9D780E220
:1002400090E077D880E290E074D88FEF90E071D89A
:1002500077C081E0DDD78FEF90E06BD886E090E04B
:1002600068D886E090E065D882E06C2FD1D787E02F
:1002700090E05FD887E090E05CD885E090E059D8C6
:100280005FC081E0C5D788E090E053D886E090E079
:1002900050D886E090E04DD882E06C2FB9D783E04B
:1002A00090E047D887E090E044D885E090E041D8DE
:1002B00047C081E0ADD781E090E03BD881E090E09D
:1002C00038D882E090E035D882E06C2FA1D780E268
:1002D00090E02FD888E090E02CD880E290E029D8F8
:1002E0002FC081E095D780E090E023D886E090E0B1
:1002F00020D882E090E01DD882E06C2F89D783E07F
:1003000090E017D887E090E014D885E090E011D80D
:1003100017C081E07DD788E090E00BD886E090E0C0
:1003200008D882E090E005D882E06C2F71D780E297
:1003300090E0FFD780E290E0FCD78FEF90E0F9D714
:10034000CF910895AF92BF92CF92DF92EF92FF923A
:100350000F931F93CF93DF9395D781E084D780E6E7
:1003600090E06FD9C0E0D0E00F2EF1E7CF2EF0E0A3
:10037000DF2EF02D0F2EFEE0EF2EFF24F02D0F2E9E
:10038000F2E8AF2EF0E0BF2EF02D829B63C085997E
:100390000AC0CF5F8FEF90E7A2E081509040A0406D
:1003A000E1F700C0000084990AC0C1508FEF90E7C8
:1003B000A2E081509040A040E1F700C000008C2FE7
:1003C0008C5F893020F4CC231CF4CB5F01C0CD2F8F
:1003D00082E049D7C60135D90C2F112707FD1095AA
:1003E00002951295107F1027007F10270F511E4F86
:1003F000A02FB12FFD0101900020E9F73197EA1BF2
:10040000FB0BB7016E1B7F0B7695679582E000D7DB
:1004100000D000D0ADB7BEB71296BC92AE92119785
:1004200014961C930E9313971AD98FEF90E7A2E0BE
:1004300081509040A040E1F700C000000F900F9065
:100440000F900F908399A1CF829B06C08399FCCF18
:100450008C2F03C08FEF01C08FEFDF91CF911F91E1
:100460000F91FF90EF90DF90CF90BF90AF900895E5
:100470000F931F93CF93DF9300D00F92CDB7DEB7CA
:10048000CE010196BE016E5F7F4FAE014D5F5F4FA3
:100490003DDA21E0909177028981981320E081E094
:1004A000309179029A81391380E0282330E081E08D
:1004B00090E0509176024B81541711F080E090E06B
:1004C00082239323009789F0DDD607E810E081E0CE
:1004D000CAD600D0EDB7FEB712830183C0D80F9003
:1004E0000F908299F4CFC398CDD60F900F900F90B4
:1004F000DF91CF911F910F9108950F931F93CF9389
:10050000DF93C0D681E0AFD600D082EA90E0ADB7ED
:10051000BEB712969C938E931197A1D80F900F900F
:10052000C5ECD0E003EB10E082E09DD68FEF90E7C2
:10053000A2E081509040A040E1F700C00000829B03
:1005400059C085990EC0809178028F5F80937802A0
:100550008FEF91EEA4E081509040A040E1F700C001
:10056000000084990EC080917802815080937802B7
:100570008FEF91EEA4E081509040A040E1F700C0E1
:10058000000080917802823018F0109278020DC03D
:10059000813059F400D0ADB7BEB712961C930E93BC
:1005A00011975DD80F900F9008C000D0EDB7FEB73F
:1005B000D283C18354D80F900F908399B5CF829B7B
:1005C00019C08399FCCF81E04ED600D086ED90E033
:1005D000ADB7BEB712969C938E93119740D88FEF0C
:1005E00093EDA0E381509040A040E1F700C00000EF
:1005F0000F900F90DF91CF911F910F9108950F935E
:100600001F93CF93DF933ED681E02DD600D088EFA5
:1006100090E0ADB7BEB712969C938E9311971FD8FA
:100620000F900F90CAE1D1E009E011E082E01BD603
:100630008FEF90E7A2E081509040A040E1F700C02A
:100640000000829B59C085990EC08091E0018F5FA8
:100650008093E0018FEF91EEA4E081509040A040A4
:10066000E1F700C0000084990EC08091E001815044
:100670008093E0018FEF91EEA4E081509040A04084
:10068000E1F700C000008091E001823018F0109284
:10069000E0010DC0813059F400D0ADB7BEB712965D
:1006A0001C930E931197DBD70F900F9008C000D0CA
:1006B000EDB7FEB7D283C183D2D70F900F90839945
:1006C000B5CF829B19C08399FCCF81E0CCD500D0F7
:1006D0008BE291E0ADB7BEB712969C938E931197C3
:1006E000BED78FEF93EDA0E381509040A040E1F79B
:1006F00000C000000F900F90DF91CF911F910F91DC
:1007000008956AE04DD98295807F890F0895982FCA
:1007100092959F70990F292F220F220F920F8F70A1
:10072000890F0895EF92FF920F931F93CF93DF935A
:1007300080917702ECDFC82F80917902E8DFD82F13
:1007400080917602E4DFF82E9DD581E08CD500D033
:100750008DE491E0ADB7BEB712969C938E9311973E
:100760007ED70F900F9082E07ED5EDB7FEB7389719
:100770000FB6F894FEBF0FBEEDBF31968CE591E049
:10078000ADB7BEB712969C938E931197C283138216
:10079000D4831582F682178262D7EDB7FEB73896FA
:1007A0000FB6F894FEBF0FBEEDBFEE240FE611E0CA
:1007B00082E061E02DD58FEF90E7A2E0815090407C
:1007C000A040E1F700C00000829BD5C085990AC017
:1007D000CF5F8FEF91EEA4E081509040A040E1F711
:1007E00000C0000084990AC0C1508FEF91EEA4E0D0
:1007F00081509040A040E1F700C00000C83108F0EF
:10080000CE2D00D000D0EDB7FEB73196ADB7BEB754
:1008100012961C930E931197C283138220D70F90C8
:100820000F900F900F908399C3CF829BA4C08399A0
:10083000FCCFEE240FE611E082E067E0E9D48FEF11
:1008400090E7A2E081509040A040E1F700C0000096
:10085000829B91C085990AC0DF5F8FEF91EEA4E083
:1008600081509040A040E1F700C0000084990AC088
:10087000D1508FEF91EEA4E081509040A040E1F77D
:1008800000C00000DC3308F0DE2D00D000D0EDB752
:10089000FEB73196ADB7BEB712961C930E93119763
:1008A000D2831382DCD60F900F900F900F90839914
:1008B000C3CF829B60C08399FCCFEE240FE611E08A
:1008C00082E06CE0A5D48FEF90E7A2E081509040E9
:1008D000A040E1F700C00000829B4DC085990AC08E
:1008E000F3948FEF91EEA4E081509040A040E1F7A7
:1008F00000C0000084990AC0FA948FEF91EEA4E042
:1009000081509040A040E1F700C000009BE39F159C
:1009100008F4FE2C00D000D0EDB7FEB73196ADB78D
:10092000BEB712961C930E931197F282138297D63C
:100930000F900F900F900F908399C2CF829B1BC096
:100940008399FCCF8C2FDDDE809377028D2FD9DE4B
:10095000809379028F2DD5DE8093760293D483E73E
:1009600091E06FD68FEF93EDA0E381509040A040CF
:10097000E1F700C00000DF91CF911F910F91FF9030
:10098000EF900895EF92FF920F931F93CF93DF9311
:10099000D62F042FBCDEC82F8D2FB9DED82F802F85
:1009A000B6DEF82E6FD481E05ED400D08DE791E002
:1009B000ADB7BEB712969C938E93119750D60F90F9
:1009C0000F9082E050D4EDB7FEB738970FB6F89489
:1009D000FEBF0FBEEDBF31968CE591E0ADB7BEB75F
:1009E00012969C938E931197C2831382D48315829F
:1009F000F682178234D6EDB7FEB738960FB6F89464
:100A0000FEBF0FBEEDBFEE240FE611E082E061E015
:100A1000FFD38FEF90E7A2E081509040A040E1F734
:100A200000C00000829BD5C085990AC0CF5F8FEFC0
:100A300091EEA4E081509040A040E1F700C000009A
:100A400084990AC0C1508FEF91EEA4E0815090408C
:100A5000A040E1F700C00000C03208F0CE2D00D069
:100A600000D0EDB7FEB73196ADB7BEB712961C9366
:100A70000E931197C2831382F2D50F900F900F90AF
:100A80000F908399C3CF829BA4C08399FCCFEE249F
:100A90000FE611E082E067E0BBD38FEF90E7A2E0C2
:100AA00081509040A040E1F700C00000829B91C0BF
:100AB00085990AC0DF5F8FEF91EEA4E081509040EE
:100AC000A040E1F700C0000084990AC0D1508FEF28
:100AD00091EEA4E081509040A040E1F700C00000FA
:100AE000DD3008F0DE2D00D000D0EDB7FEB7319636
:100AF000ADB7BEB712961C930E931197D283138293
:100B0000AED50F900F900F900F908399C3CF829B1B
:100B100060C08399FCCFEE240FE611E082E06CE028
:100B200077D38FEF90E7A2E081509040A040E1F7AB
:100B300000C00000829B4DC085990AC0F3948FEFDE
:100B400091EEA4E081509040A040E1F700C0000089
:100B500084990AC0FA948FEF91EEA4E081509040FE
:100B6000A040E1F700C0000092E69F1508F4FE2CBB
:100B700000D000D0EDB7FEB73196ADB7BEB7129634
:100B80001C930E931197F282138269D50F900F90E8
:100B90000F900F908399C2CF829B1BC08399FCCF8B
:100BA0008C2FAFDD082F8D2FACDDC82F8F2DA9DD49
:100BB000482F802F6C2F94D665D38CE891E041D5D7
:100BC0008FEF93EDA0E381509040A040E1F700C08B
:100BD0000000DF91CF911F910F91FF90EF9008954A
:100BE000EF92FF920F931F93CF93DF93D62F042F93
:100BF0008EDDC82F8D2F8BDDD82F802F88DDF82E2E
:100C000041D381E030D300D08DE491E0ADB7BEB7E1
:100C100012969C938E93119722D50F900F9082E09D
:100C200022D3EDB7FEB738970FB6F894FEBF0FBECC
:100C3000EDBF31968CE591E0ADB7BEB712969C93AF
:100C40008E931197C2831382D4831582F682178202
:100C500006D5EDB7FEB738960FB6F894FEBF0FBEB7
:100C6000EDBFEE240FE611E082E061E0D1D28FEF1C
:100C700090E7A2E081509040A040E1F700C0000062
:100C8000829BD5C085990AC0CF5F8FEF91EEA4E01B
:100C900081509040A040E1F700C0000084990AC054
:100CA000C1508FEF91EEA4E081509040A040E1F759
:100CB00000C00000C83108F0CE2D00D000D0EDB744
:100CC000FEB73196ADB7BEB712961C930E9311972F
:100CD000C2831382C4D40F900F900F900F9083990A
:100CE000C3CF829BA4C08399FCCFEE240FE611E012
:100CF00082E067E08DD28FEF90E7A2E081509040D4
:100D0000A040E1F700C00000829B91C085990AC015
:100D1000DF5F8FEF91EEA4E081509040A040E1F7BB
:100D200000C0000084990AC0D1508FEF91EEA4E07A
:100D300081509040A040E1F700C00000DC3308F093
:100D4000DE2D00D000D0EDB7FEB73196ADB7BEB7FF
:100D500012961C930E931197D283138280D40F9016
:100D60000F900F900F908399C3CF829B60C083999F
:100D7000FCCFEE240FE611E082E06CE049D28FEF69
:100D800090E7A2E081509040A040E1F700C0000051
:100D9000829B4DC085990AC0F3948FEF91EEA4E039
:100DA00081509040A040E1F700C0000084990AC043
:100DB000FA948FEF91EEA4E081509040A040E1F7CB
:100DC00000C000009BE39F1508F4FE2C00D000D06B
:100DD000EDB7FEB73196ADB7BEB712961C930E9322
:100DE0001197F28213823BD40F900F900F900F90C7
:100DF0008399C2CF829B1BC08399FCCF8C2F81DC4F
:100E0000082F8D2F7EDCC82F8F2D7BDC482F802F65
:100E10006C2F50D537D289E991E013D48FEF93ED41
:100E2000A0E381509040A040E1F700C00000DF91B6
:100E3000CF911F910F91FF90EF9008951F93CF9343
:100E4000DF93D82FC62F142F80917802813071F54F
:100E500082E009D28D2F5BDCD82F8C2F58DCC82F75
:100E6000812F55DC2DB73EB7285030400FB6F8948F
:100E70003EBF0FBE2DBFEDB7FEB7319626EA31E07B
:100E8000ADB7BEB712963C932E931197D2831382BF
:100E9000C483158286831782E2D32DB73EB7285FBD
:100EA0003F4F0FB6F8943EBF0FBE2DBFDF91CF91DD
:100EB0001F9108950F931F93CF93DF93162FD42F75
:100EC00026DCC82F812F23DC082F8D2F20DC182F44
:100ED0008091E0018130F9F46EE09AD1CD3070F06C
:100EE000CC5000D086EB91E0ADB7BEB712969C9384
:100EF0008E931197B4D30F900F900DC0CC2309F4AB
:100F0000CCE000D089EB91E0EDB7FEB7928381830E
:100F1000A6D30F900F9080917802813021F5A3D154
:100F20008DB79EB708970FB6F8949EBF0FBE8DBFC2
:100F3000EDB7FEB731968CEB91E0ADB7BEB7129628
:100F40009C938E931197C283138204831582168318
:100F5000178285D3EDB7FEB738960FB6F894FEBF6B
:100F60000FBEEDBF36C01AE08C2F612F19D5C92FE7
:100F700060E0ECD88C2F63E0E9D881E066E048D1EE
:100F800085EA90E0D6D182E066E042D185EA90E041
:100F9000D0D1802F612F04D5C92F67E0D7D88C2FEF
:100FA0006AE0D4D882E06EE033D100D000D0EDB753
:100FB000FEB731968CEC91E0ADB7BEB712969C931C
:100FC0008E931197D28313824AD30F900F900F9074
:100FD0000F90DF91CF911F910F910895CF93DF93E1
:100FE00000D000D000D0CDB7DEB780EF81BB8FEF4F
:100FF00082BBBB9A84E062E040E149D100D080ED41
:1010000091E0ADB7BEB712969C938E93119727D3FC
:101010008FEF93EDA0E381509040A040E1F700C036
:1010200000000F900F902ED13BD489E692E060E053
:1010300074D881E692E061E070D889E592E062E0E0
:101040006CD881E592E063E068D889E492E064E0DE
:1010500064D881E492E065E060D889E392E066E0DC
:101060005CD881E392E067E058D8839923C0839BE2
:10107000FECF68D98230B1F0833028F4882341F064
:101080008130A9F40AC0833079F0843081F40EC035
:101090008B816A814981A4DD0AC08C816D814E817A
:1010A00071DC05C03FDB03C028DA01C0A8DA8299F1
:1010B000E0CFE8D0CE010396BE016E5F7F4FAE0158
:1010C0004F5F5F4F23D4CE010496BE016B5F7F4F0D
:1010D000AE014A5F5F4F3FD48B816A814981EADE6E
:1010E0008C816D814E81AADEC3D9BFCF009759F0A4
:1010F0002FEF39E648E1215030404040E1F700C091
:1011000000000197A9F7089511B880E580B984E03F
:1011100086BF089584EA86BF06B607FEFDCF089510
:1011200084E986BF8AE18A95F1F700C0089583B902
:1011300084E886BF06B607FEFDCF08958295880F26
:10114000880F807C846886BF06B607FEFDCF83B11A
:101150000895982F84FF02C0C49A01C0C49895FFD7
:1011600002C0C59A01C0C59896FF02C0C69A01C0C8
:10117000C698882314F4C79A0895C7980895BF980D
:10118000C098C19AEEE7F2E0C2988AE18A95F1F739
:1011900000C0C29A9AE19A95F1F700C086B3908197
:1011A000943051F4C2989AE19A95F1F700C0C29A2E
:1011B0009AE19A95F1F700C0882334F3BF9A089515
:1011C000C098C198C29A8AE18A95F1F700C0C29886
:1011D0000895C09AC198C29A8AE18A95F1F700C031
:1011E000C2980895CF93C82FCADF80917E028830BD
:1011F00019F4C8BBE5DF0AC0843041F48C2FA9DFA5
:10120000DFDF8C2F8295807FA4DFDADFCF91089516
:1012100090917C02981778F090917D02691758F4AC
:1012200060937A0280937B02E1E7F2E0E80FF11D20
:101230008081860FD7DF089580917B028F5F809336
:101240007B0210927A0290917C02981718F481E048
:1012500080937B0280917B02E1E7F2E0E80FF11DD1
:101260008081C0DF089590917C02981750F0109211
:101270007A0280937B02E1E7F2E0E80FF11D8081C2
:10128000B1DF089581E0AEDF81E0EDDF08959FEFEB
:1012900097BB97BB80937E0240937D0260937C0254
:1012A000633040F04F70842F805780937402405316
:1012B000409375028FEF90E7A2E081509040A040EC
:1012C000E1F700C0000080917E02883019F488E3C5
:1012D00089DF2BC0843049F580E33BDF71DF8FEF7E
:1012E00090E7A2E081509040A040E1F700C00000EC
:1012F00080E32FDF65DFAFE8B1E01197F1F700C0C1
:10130000000080E326DF5CDF8FE891E00197F1F7D2
:1013100000C0000080E21DDF53DFAFE8B1E01197AD
:10132000F1F700C0000088E25DDF8FE05BDFAADF3D
:101330000895CF93C82F23DF80917E02883019F45F
:10134000C8BB47DF0AC0843041F48C2F02DF41DF85
:101350008C2F8295807FFDDE3CDFCF910895CF9367
:10136000C82F90917D0280917A02891718F4CA30B3
:1013700021F40BC061DFCA3049F08C2FDADF809195
:101380007A028F5F80937A0201C056DFCF91089571
:10139000BF92CF92DF92EF92FF920F931F93CF9362
:1013A000DF936B017C01C42F442311F101E010E0B5
:1013B000D1E0BB244C2F50E041505040C80102C046
:1013C000880F991F4A95E2F7AC01662757FD609593
:1013D000762F4C215D216E217F218D2F41155105E6
:1013E0006105710509F48B2D805DB9DFC15011F7DE
:1013F000DF91CF911F910F91FF90EF90DF90CF90F1
:10140000BF9008951F93CF93DF93CDB7DEB72A9790
:101410000FB6F894DEBF0FBECDBFDC01CB01009745
:10142000A105B10519F0442369F435C0442399F1AD
:10143000FE01319610E011921F5F141701F11A306E
:10144000D1F71DC0FE01319610E00097A105B1054E
:1014500061F0282F2F702083689413F8B695A79514
:10146000979587951694D1F703C04B3030F41082CE
:101470001F5F3196141749F702C0112361F0FE0176
:10148000E10FF11D80818A3010F0895C01C0805D20
:1014900066DF1150A1F72A960FB6F894DEBF0FBE93
:1014A000CDBFDF91CF911F9108958F929F92AF9200
:1014B000BF92EF92FF920F931F93CF93DF93CDB71D
:1014C000DEB72A970FB6F894DEBF0FBECDBFDC01A2
:1014D000CB01042F0097A105B10519F0442371F445
:1014E00041C0442309F43EC0FE01319610E0119240
:1014F0001F5F101779F11A30D1F72CC07E010894C4
:10150000E11CF11C10E00F2EFAE08F2EF0E09F2E70
:10151000F0E0AF2EF0E0BF2EF02D0097A105B10551
:1015200061F0BC01CD01A501940146D2F7016083B1
:10153000822F932FA42FB52F04C00B3048F4F7014E
:1015400010821F5F0894E11CF11C101731F702C0D4
:10155000112341F0FE01E10FF11D8081805DFFDE6E
:101560001150C1F72A960FB6F894DEBF0FBECDBF5B
:10157000DF91CF911F910F91FF90EF90BF90AF90AF
:101580009F908F900895AF92BF92CF92DF92EF928B
:10159000FF920F931F93CF93DF93B82E6B0180912F
:1015A0007C028B1510F4BB24B3948CE01BDED601B7
:1015B0008C918823B9F1D0E00DE712E0AA248B2D9D
:1015C00052DEF80180818823E9F0ED2EFF24F60138
:1015D000EE0DFF1D8081882391F1CA2D7F01BFDEB2
:1015E000CF5FD8018C91C81768F4F701EC0FF11D9B
:1015F00080818823A1F780E2B2DECF5FF80180818D
:10160000C817C8F38FE39DE0A3E081509040A0404D
:10161000E1F700C00000DF5FF601ED0FF11D8081F2
:10162000882369F68EE0DEDDDF91CF911F910F9167
:10163000FF90EF90DF90CF90BF90AF900895CA2DAC
:10164000DACFCF93DF93EC018881882329F02196AC
:1016500086DE89918823E1F7DF91CF9108955F922B
:101660006F927F928F929F92AF92BF92CF92DF92B2
:10167000EF92FF920F931F93CF93DF93CDB7DEB717
:101680000F2EF2E1CF2EDD24F02DCC0EDD1ED60183
:10169000ED91FD916D018081882309F4F1C08F01E6
:1016A0005524689454F899249A948824853209F032
:1016B000DBC058010894A11CB11CF8018181982F4E
:1016C00090539A3080F43296182D110F912F990F64
:1016D000990F190F8053180F5F018191982F905324
:1016E0009A3098F301C0192D90E0859784359105C3
:1016F00008F0BCC0835E9F4F8F939F93089586012F
:101700000E5F1F4FD6018C912ADE6801AFC0EE2418
:10171000FF246894E1F8EC0CFD1CF601C080D18038
:10172000DD2034F4D094C194D108D3948DE217DE37
:10173000B601882777FD8095982F412FB6DE670187
:1017400095C066247724689462F86C0C7D1CD601E1
:10175000CD90DD90ED90FC901397FF2054F4F09421
:10176000E094D094C094C11CD11CE11CF11C8DE20A
:10177000F6DDC701B601412F98DE630177C0EE2484
:10178000FF246894E1F8EC0CFD1CF6018081918146
:10179000BC0180E090E0412F88DE670167C0EE2445
:1017A000FF246894E2F8EC0CFD1CD6016D917D914C
:1017B0008D919C91412F79DE670158C0EE24FF2462
:1017C0006894E1F8EC0CFD1CF60180819181BC016C
:1017D00080E090E0412F16DE670148C0EE24FF2430
:1017E0006894E2F8EC0CFD1CD6016D917D918D9111
:1017F0009C91412F07DE670139C0EE24FF246894D5
:10180000E1F8EC0CFD1CF601808191811F3F09F489
:10181000152DBC0180E090E0412FBADD670126C0A4
:10182000EE24FF246894E2F8EC0CFD1CD6016D91C7
:101830007D918D919C9113971F3F09F4152D412F98
:10184000A7DD670113C0E4E0F0E0CE0EDF1E0EC09E
:10185000F60182E090E0C80ED91E80819181F1DE10
:1018600005C085E27CDD02C07ADD580185010F5F8D
:101870001F4FD50111968C911197882309F016CF2F
:10188000DF91CF911F910F91FF90EF90DF90CF905C
:10189000BF90AF909F908F907F906F905F900895D2
:1018A00033DC38DC80ED43DC87E041DC80E03FDC8A
:1018B00037DC08951F93CF93DF93C82FD62F142FB3
:1018C00029DC80ED34DC80E032DC812F30DC8D2FB0
:1018D0002EDC8C2F2CDC24DCDF91CF911F9108951E
:1018E0001F93CF93DF93182FD62FC42F13DC80EDD7
:1018F0001EDC84E01CDC812F1ADC8D2F18DC8C2F81
:1019000016DC0EDCDF91CF911F910895EF92FF92CC
:101910000F931F93CF93DF937C018B01EA01FADBD6
:1019200080ED05DC80E003DCFBDBF4DB81EDFFDB3D
:1019300081E004DC888381E001DCF801808380E0C1
:10194000FDDBF7018083ECDBDF91CF911F910F91DD
:10195000FF90EF900895EF92FF920F931F93CF9314
:10196000DF93EC018B017A01D5DB80EDE0DB84E0D5
:10197000DEDBD6DBCFDB81EDDADB81E0DFDB88830A
:1019800081E0DCDBF801808380E0D8DBF701808335
:10199000C7DBDF91CF911F910F91FF90EF900895DA
:1019A000991B79E004C0991F961708F0961B881FB1
:1019B0007A95C9F780950895A1E21A2EAA1BBB1B40
:1019C000FD010DC0AA1FBB1FEE1FFF1FA217B3070B
:1019D000E407F50720F0A21BB30BE40BF50B661F21
:1019E000771F881F991F1A9469F7609570958095E5
:1019F00090959B01AC01BD01CF010895F894FFCFF4
:101A00002020202053657474696E67732020202085
:101A100000202020202020202020202020202020E6
:101A200020003C25733E0050726573732043616E45
:101A300063656C20746F2053746F7020416C617209
:101A40006D002020446973706C61792D5374796C3A
:101A500065200020203C54696D65202B2044617472
:101A6000653E2020002020203C4F6E6C7920546978
:101A70006D653E2020002020446973706C61792DD3
:101A80005374796C65200A2020202055706461749D
:101A90006564202020202000202054696D652046A8
:101AA0006F726D6174202020002020203C31322094
:101AB000486F7572733E202020002020203C323475
:101AC00020486F7572733E20202000202054696DDD
:101AD0006520466F726D61742020200A202020202E
:101AE00055706461746564202020202000486F7563
:101AF0007220204D696E2020536563003C253264BE
:101B00003E20203C2532643E203C2532643E0025A8
:101B1000326400416C61726D20536574002044444E
:101B2000202020204D4D202020595900446174650B
:101B300020557064617465640054696D652055704A
:101B4000646174656400202020202532642F2532D2
:101B5000642F25326400504D00414D00202020208C
:101B60002532643A2532643A253264002532780001
:101B7000204578706C6F72652054696D6520210076
:101B80000154696D650000000000000000000000C5
:101B900000446174650000000000000000000000C7
:101BA00000416C61726D0000000000000000000048
:101BB00000446973706C6179205374796C6500001E
:101BC0000054696D6520466F726D617400000000FD
:101BD000001F000000001F1F1F1F1F1F0000001F0D
:101BE0001F1F1F1F1F1F1F1E1C00000000001F1FA4
:101BF0001F1F1F1F1F1F1F0F071C1E1F1F1F1F1F21
:101C00001F1F1F1F0000000000070F1F1F1F1F1FA7
:061C10001F8080C090D08F
:00000001FF
