:1000000070C08AC089C088C087C086C085C084C0CF
:1000100083C082C081C080C07FC07EC07DC07CC0E4
:100020007BC07AC079C09DC0B4C0CBC0E2C0F9C06B
:1000300010C127C13EC155C16CC11BCC1FCC1ECC09
:100040001DCC1CCC1BCC1ACC19CC18CC17CC16CC84
:1000500015CC14CC13CC12CC11CC10CC0FCC0ECCB4
:100060000DCC0CCC0BCC0ACC09CC08CC07CC06CCE4
:1000700005CC04CCDDCB4BCB6CCB00CCECCBFECB9E
:10008000FDCBFCCBFBCBFACBF9CBF8CBF7CBF6CB4C
:10009000F5CBF4CBF3CBE4CBF1CB89CBEFCBEECBF1
:1000A000A5CBECCBEBCBEACBE9CBE8CBE7CBE6CBF4
:1000B000E5CBE4CBAACB2BCB32CBE0CBCCCBDECB8E
:1000C000DDCBDCCBDBCBDACBD9CBD8CBD7CBD6CB0C
:1000D000D5CBD4CBD3CBC4CBD1CB59CBCFCBCECBC1
:1000E00075CB11241FBECFE5D4E0DEBFCDBF12E03B
:1000F000A0E6B0E0E0E1FAE102C005900D92A2377F
:10010000B107D9F712E0A2E7B2E001C01D92AB3708
:10011000B107E1F763D77ACC73CF0F931F93CF93D7
:10012000DF93082F192F862F880F880F880F805C88
:1001300061D8C02FD12F18E0899190E002D91150D9
:10014000D9F7DF91CF911F910F910895CF93C62FCB
:10015000E82FF0E0EA30F10508F0F2C0ED5EFF4F65
:10016000099481E05DD880E090E0EBD881E090E0F8
:10017000E8D882E090E0E5D882E06C2F51D883E0A7
:1001800090E0DFD884E090E0DCD885E090E0D9D83A
:10019000D7C081E045D881E090E0D3D882E090E0FC
:1001A000D0D880E290E0CDD882E06C2F39D880E2C0
:1001B00090E0C7D88FEF90E0C4D880E290E0C1D83B
:1001C000BFC081E02DD886E090E0BBD886E090E00B
:1001D000B8D882E090E0B5D882E06C2F21D883E0D7
:1001E00090E0AFD887E090E0ACD887E090E0A9D865
:1001F000A7C081E015D886E090E0A3D886E090E023
:10020000A0D882E090E09DD882E06C2F09D887E0EA
:1002100090E097D887E090E094D885E090E091D87E
:100220008FC081E0FDD783E090E08BD884E090E040
:1002300088D882E090E085D882E06C2FF1D780E208
:1002400090E07FD880E290E07CD88FEF90E079D882
:1002500077C081E0E5D78FEF90E073D886E090E03B
:1002600070D886E090E06DD882E06C2FD9D787E017
:1002700090E067D887E090E064D885E090E061D8AE
:100280005FC081E0CDD788E090E05BD886E090E069
:1002900058D886E090E055D882E06C2FC1D783E033
:1002A00090E04FD887E090E04CD885E090E049D8C6
:1002B00047C081E0B5D781E090E043D881E090E08D
:1002C00040D882E090E03DD882E06C2FA9D780E250
:1002D00090E037D888E090E034D880E290E031D8E0
:1002E0002FC081E09DD780E090E02BD886E090E0A1
:1002F00028D882E090E025D882E06C2F91D783E067
:1003000090E01FD887E090E01CD885E090E019D8F5
:1003100017C081E085D788E090E013D886E090E0B0
:1003200010D882E090E00DD882E06C2F79D780E27F
:1003300090E007D880E290E004D88FEF90E001D8F9
:10034000CF910895AF92BF92CF92DF92EF92FF923A
:100350000F931F93CF93DF939DD781E08CD780E6D7
:1003600090E077D9C0E0D0E00F2EF1E7CF2EF0E09B
:10037000DF2EF02D0F2EFEE0EF2EFF24F02D0F2E9E
:10038000F2E8AF2EF0E0BF2EF02D829B63C085997E
:100390000AC0CF5F8FEF90E7A2E081509040A0406D
:1003A000E1F700C0000084990AC0C1508FEF90E7C8
:1003B000A2E081509040A040E1F700C000008C2FE7
:1003C0008C5F893020F4CC231CF4CB5F01C0CD2F8F
:1003D00082E051D7C6013DD90C2F112707FD10959A
:1003E00002951295107F1027007F102704521E4F90
:1003F000A02FB12FFD0101900020E9F73197EA1BF2
:10040000FB0BB7016E1B7F0B7695679582E008D7D3
:1004100000D000D0ADB7BEB71296BC92AE92119785
:1004200014961C930E93139722D98FEF90E7A2E0B6
:1004300081509040A040E1F700C000000F900F9065
:100440000F900F908399A1CF829B06C08399FCCF18
:100450008C2F03C08FEF01C08FEFDF91CF911F91E1
:100460000F91FF90EF90DF90CF90BF90AF900895E5
:100470000F931F93CF93DF9300D00F92CDB7DEB7CA
:10048000CE010196BE016E5F7F4FAE014D5F5F4FA3
:1004900045DA21E0909173028981981320E081E090
:1004A000309175029A81391380E0282330E081E091
:1004B00090E0509172024B81541711F080E090E06F
:1004C00082239323009789F0E5D607E810E081E0C6
:1004D000D2D600D0EDB7FEB712830183C8D80F90F3
:1004E0000F908299F4CFC398D5D60F900F900F90AC
:1004F000DF91CF911F910F9108950F931F93CF9389
:10050000DF93C8D681E0B7D600D082EA90E0ADB7DD
:10051000BEB712969C938E931197A9D80F900F9007
:10052000C5ECD0E003EB10E082E0A5D68FEF90E7BA
:10053000A2E081509040A040E1F700C00000829B03
:1005400059C085990EC0809174028F5F80937402A8
:100550008FEF91EEA4E081509040A040E1F700C001
:10056000000084990EC080917402815080937402BF
:100570008FEF91EEA4E081509040A040E1F700C0E1
:10058000000080917402823018F0109274020DC045
:10059000813059F400D0ADB7BEB712961C930E93BC
:1005A000119765D80F900F9008C000D0EDB7FEB737
:1005B000D283C1835CD80F900F908399B5CF829B73
:1005C00019C08399FCCF81E056D600D086ED90E02B
:1005D000ADB7BEB712969C938E93119748D88FEF04
:1005E00093EDA0E381509040A040E1F700C00000EF
:1005F0000F900F90DF91CF911F910F9108950F935E
:100600001F93CF93DF9346D681E035D600D085EF98
:1006100090E0ADB7BEB712969C938E93119727D8F2
:100620000F900F90C7E1D1E006E011E082E023D601
:100630008FEF90E7A2E081509040A040E1F700C02A
:100640000000829B59C085990EC08091DB018F5FAD
:100650008093DB018FEF91EEA4E081509040A040A9
:10066000E1F700C0000084990EC08091DB01815049
:100670008093DB018FEF91EEA4E081509040A04089
:10068000E1F700C000008091DB01823018F0109289
:10069000DB010DC0813059F400D0ADB7BEB7129662
:1006A0001C930E931197E3D70F900F9008C000D0C2
:1006B000EDB7FEB7D283C183DAD70F900F9083993D
:1006C000B5CF829B19C08399FCCF81E0D4D500D0EF
:1006D00088E291E0ADB7BEB712969C938E931197C6
:1006E000C6D78FEF93EDA0E381509040A040E1F793
:1006F00000C000000F900F90DF91CF911F910F91DC
:1007000008956AE055D98295807F890F0895982FC2
:1007100092959F70990F292F220F220F920F8F70A1
:10072000890F0895EF92FF920F931F93CF93DF935A
:1007300080917302ECDFC82F80917502E8DFD82F1B
:1007400080917202E4DFF82EA5D581E094D500D027
:1007500088E491E0ADB7BEB712969C938E93119743
:1007600086D70F900F9082E086D5EDB7FEB7389709
:100770000FB6F894FEBF0FBEEDBF319687E591E04E
:10078000ADB7BEB712969C938E931197C283138216
:10079000D4831582F68217826AD7EDB7FEB73896F2
:1007A0000FB6F894FEBF0FBEEDBFEE240AE611E0CF
:1007B00082E061E035D58FEF90E7A2E08150904074
:1007C000A040E1F700C00000829BD5C085990AC017
:1007D000CF5F8FEF91EEA4E081509040A040E1F711
:1007E00000C0000084990AC0C1508FEF91EEA4E0D0
:1007F00081509040A040E1F700C00000C83108F0EF
:10080000CE2D00D000D0EDB7FEB73196ADB7BEB754
:1008100012961C930E931197C283138228D70F90C0
:100820000F900F900F908399C3CF829BA4C08399A0
:10083000FCCFEE240AE611E082E067E0F1D48FEF0E
:1008400090E7A2E081509040A040E1F700C0000096
:10085000829B91C085990AC0DF5F8FEF91EEA4E083
:1008600081509040A040E1F700C0000084990AC088
:10087000D1508FEF91EEA4E081509040A040E1F77D
:1008800000C00000DC3308F0DE2D00D000D0EDB752
:10089000FEB73196ADB7BEB712961C930E93119763
:1008A000D2831382E4D60F900F900F900F9083990C
:1008B000C3CF829B60C08399FCCFEE240AE611E08F
:1008C00082E06CE0ADD48FEF90E7A2E081509040E1
:1008D000A040E1F700C00000829B4DC085990AC08E
:1008E000F3948FEF91EEA4E081509040A040E1F7A7
:1008F00000C0000084990AC0FA948FEF91EEA4E042
:1009000081509040A040E1F700C000009BE39F159C
:1009100008F4FE2C00D000D0EDB7FEB73196ADB78D
:10092000BEB712961C930E931197F28213829FD634
:100930000F900F900F900F908399C2CF829B1BC096
:100940008399FCCF8C2FDDDE809373028D2FD9DE4F
:10095000809375028F2DD5DE809372029BD48EE634
:1009600091E077D68FEF93EDA0E381509040A040C7
:10097000E1F700C00000DF91CF911F910F91FF9030
:10098000EF900895EF92FF920F931F93CF93DF9311
:10099000D62F042FBCDEC82F8D2FB9DED82F802F85
:1009A000B6DEF82E77D481E066D400D088E791E0F7
:1009B000ADB7BEB712969C938E93119758D60F90F1
:1009C0000F9082E058D4EDB7FEB738970FB6F89481
:1009D000FEBF0FBEEDBF319687E591E0ADB7BEB764
:1009E00012969C938E931197C2831382D48315829F
:1009F000F68217823CD6EDB7FEB738960FB6F8945C
:100A0000FEBF0FBEEDBFEE240AE611E082E061E01A
:100A100007D48FEF90E7A2E081509040A040E1F72B
:100A200000C00000829BD5C085990AC0CF5F8FEFC0
:100A300091EEA4E081509040A040E1F700C000009A
:100A400084990AC0C1508FEF91EEA4E0815090408C
:100A5000A040E1F700C00000C03208F0CE2D00D069
:100A600000D0EDB7FEB73196ADB7BEB712961C9366
:100A70000E931197C2831382FAD50F900F900F90A7
:100A80000F908399C3CF829BA4C08399FCCFEE249F
:100A90000AE611E082E067E0C3D38FEF90E7A2E0BF
:100AA00081509040A040E1F700C00000829B91C0BF
:100AB00085990AC0DF5F8FEF91EEA4E081509040EE
:100AC000A040E1F700C0000084990AC0D1508FEF28
:100AD00091EEA4E081509040A040E1F700C00000FA
:100AE000DD3008F0DE2D00D000D0EDB7FEB7319636
:100AF000ADB7BEB712961C930E931197D283138293
:100B0000B6D50F900F900F900F908399C3CF829B13
:100B100060C08399FCCFEE240AE611E082E06CE02D
:100B20007FD38FEF90E7A2E081509040A040E1F7A3
:100B300000C00000829B4DC085990AC0F3948FEFDE
:100B400091EEA4E081509040A040E1F700C0000089
:100B500084990AC0FA948FEF91EEA4E081509040FE
:100B6000A040E1F700C0000092E69F1508F4FE2CBB
:100B700000D000D0EDB7FEB73196ADB7BEB7129634
:100B80001C930E931197F282138271D50F900F90E0
:100B90000F900F908399C2CF829B1BC08399FCCF8B
:100BA0008C2FAFDD082F8D2FACDDC82F8F2DA9DD49
:100BB000482F802F6C2F9CD66DD387E891E049D5C4
:100BC0008FEF93EDA0E381509040A040E1F700C08B
:100BD0000000DF91CF911F910F91FF90EF9008954A
:100BE000EF92FF920F931F93CF93DF93D62F042F93
:100BF0008EDDC82F8D2F8BDDD82F802F88DDF82E2E
:100C000049D381E038D300D088E491E0ADB7BEB7D6
:100C100012969C938E9311972AD50F900F9082E095
:100C20002AD3EDB7FEB738970FB6F894FEBF0FBEC4
:100C3000EDBF319687E591E0ADB7BEB712969C93B4
:100C40008E931197C2831382D4831582F682178202
:100C50000ED5EDB7FEB738960FB6F894FEBF0FBEAF
:100C6000EDBFEE240AE611E082E061E0D9D28FEF19
:100C700090E7A2E081509040A040E1F700C0000062
:100C8000829BD5C085990AC0CF5F8FEF91EEA4E01B
:100C900081509040A040E1F700C0000084990AC054
:100CA000C1508FEF91EEA4E081509040A040E1F759
:100CB00000C00000C83108F0CE2D00D000D0EDB744
:100CC000FEB73196ADB7BEB712961C930E9311972F
:100CD000C2831382CCD40F900F900F900F90839902
:100CE000C3CF829BA4C08399FCCFEE240AE611E017
:100CF00082E067E095D28FEF90E7A2E081509040CC
:100D0000A040E1F700C00000829B91C085990AC015
:100D1000DF5F8FEF91EEA4E081509040A040E1F7BB
:100D200000C0000084990AC0D1508FEF91EEA4E07A
:100D300081509040A040E1F700C00000DC3308F093
:100D4000DE2D00D000D0EDB7FEB73196ADB7BEB7FF
:100D500012961C930E931197D283138288D40F900E
:100D60000F900F900F908399C3CF829B60C083999F
:100D7000FCCFEE240AE611E082E06CE051D28FEF66
:100D800090E7A2E081509040A040E1F700C0000051
:100D9000829B4DC085990AC0F3948FEF91EEA4E039
:100DA00081509040A040E1F700C0000084990AC043
:100DB000FA948FEF91EEA4E081509040A040E1F7CB
:100DC00000C000009BE39F1508F4FE2C00D000D06B
:100DD000EDB7FEB73196ADB7BEB712961C930E9322
:100DE0001197F282138243D40F900F900F900F90BF
:100DF0008399C2CF829B1BC08399FCCF8C2F81DC4F
:100E0000082F8D2F7EDCC82F8F2D7BDC482F802F65
:100E10006C2F58D53FD284E991E01BD48FEF93ED2E
:100E2000A0E381509040A040E1F700C00000DF91B6
:100E3000CF911F910F91FF90EF9008951F93CF9343
:100E4000DF93D82FC62F142F80917402813071F553
:100E500082E011D28D2F5BDCD82F8C2F58DCC82F6D
:100E6000812F55DC2DB73EB7285030400FB6F8948F
:100E70003EBF0FBE2DBFEDB7FEB7319621EA31E080
:100E8000ADB7BEB712963C932E931197D2831382BF
:100E9000C483158286831782EAD32DB73EB7285FB5
:100EA0003F4F0FB6F8943EBF0FBE2DBFDF91CF91DD
:100EB0001F9108950F931F93CF93DF93162FD42F75
:100EC00026DCC82F812F23DC082F8D2F20DC182F44
:100ED0008091DB018130F9F46EE0A2D1CD3070F069
:100EE000CC5000D081EB91E0ADB7BEB712969C9389
:100EF0008E931197BCD30F900F900DC0CC2309F4A3
:100F0000CCE000D084EB91E0EDB7FEB79283818313
:100F1000AED30F900F9080917402813021F5ABD148
:100F20008DB79EB708970FB6F8949EBF0FBE8DBFC2
:100F3000EDB7FEB7319687EB91E0ADB7BEB712962D
:100F40009C938E931197C283138204831582168318
:100F500017828DD3EDB7FEB738960FB6F894FEBF63
:100F60000FBEEDBF36C01AE08C2F612F21D5C92FDF
:100F700060E0ECD88C2F63E0E9D881E066E050D1E6
:100F800085EA90E0DED182E066E04AD185EA90E031
:100F9000D8D1802F612F0CD5C92F67E0D7D88C2FDF
:100FA0006AE0D4D882E06EE03BD100D000D0EDB74B
:100FB000FEB7319687EC91E0ADB7BEB712969C9321
:100FC0008E931197D283138252D30F900F900F906C
:100FD0000F90DF91CF911F910F910895CF93DF93E1
:100FE00000D000D000D0CDB7DEB780EF81BB8FEF4F
:100FF00082BBBB9A84E062E040E151D100D08BEC2F
:1010000091E0ADB7BEB712969C938E9311972FD3F4
:101010008FEF93EDA0E381509040A040E1F700C036
:1010200000000F900F9036D143D484E692E060E048
:1010300074D88CE592E061E070D884E592E062E0DB
:101040006CD88CE492E063E068D884E492E064E0D9
:1010500064D88CE392E065E060D884E392E066E0D7
:101060005CD88CE292E067E058D883E260E440E22A
:1010700029D484E161E142E13BD4839923C0839B7D
:10108000FECF60D98230B1F0833028F4882341F05C
:101090008130A9F40AC0833079F0843081F40EC025
:1010A0008B816A8149819CDD0AC08C816D814E8172
:1010B00069DC05C037DB03C020DA01C0A0DA829901
:1010C000E0CFE8D0CE010396BE016E5F7F4FAE0148
:1010D0004F5F5F4F23D4CE010496BE016B5F7F4FFD
:1010E000AE014A5F5F4F3FD48B816A814981E2DE66
:1010F0008C816D814E81A2DEBBD9BFCF009759F0A4
:101100002FEF39E648E1215030404040E1F700C080
:1011100000000197A9F7089511B880E580B984E02F
:1011200086BF089584EA86BF06B607FEFDCF089500
:1011300084E986BF8AE18A95F1F700C0089583B9F2
:1011400084E886BF06B607FEFDCF08958295880F16
:10115000880F807C846886BF06B607FEFDCF83B10A
:101160000895982F84FF02C0C49A01C0C49895FFC7
:1011700002C0C59A01C0C59896FF02C0C69A01C0B8
:10118000C698882314F4C79A0895C7980895BF98FD
:10119000C098C19AEAE7F2E0C2988AE18A95F1F72D
:1011A00000C0C29A9AE19A95F1F700C086B3908187
:1011B000943051F4C2989AE19A95F1F700C0C29A1E
:1011C0009AE19A95F1F700C0882334F3BF9A089505
:1011D000C098C198C29A8AE18A95F1F700C0C29876
:1011E0000895C09AC198C29A8AE18A95F1F700C021
:1011F000C2980895CF93C82FCADF80917A028830B1
:1012000019F4C8BBE5DF0AC0843041F48C2FA9DF94
:10121000DFDF8C2F8295807FA4DFDADFCF91089506
:1012200090917802981778F090917902691758F4A4
:101230006093760280937702ECE6F2E0E80FF11D0E
:101240008081860FD7DF0895809177028F5F80932A
:1012500077021092760290917802981718F481E044
:101260008093770280917702ECE6F2E0E80FF11DBF
:101270008081C0DF089590917802981750F0109205
:10128000760280937702ECE6F2E0E80FF11D8081B0
:10129000B1DF089581E0AEDF81E0EDDF08959FEFDB
:1012A00097BB97BB80937A02409379026093780250
:1012B000633040F04F70842F805780936F0240530B
:1012C000409370028FEF90E7A2E081509040A040E1
:1012D000E1F700C0000080917A02883019F488E3B9
:1012E00089DF2BC0843049F580E33BDF71DF8FEF6E
:1012F00090E7A2E081509040A040E1F700C00000DC
:1013000080E32FDF65DFAFE8B1E01197F1F700C0B0
:10131000000080E326DF5CDF8FE891E00197F1F7C2
:1013200000C0000080E21DDF53DFAFE8B1E011979D
:10133000F1F700C0000088E25DDF8FE05BDFAADF2D
:101340000895CF93C82F23DF80917A02883019F453
:10135000C8BB47DF0AC0843041F48C2F02DF41DF75
:101360008C2F8295807FFDDE3CDFCF910895CF9357
:10137000C82F9091790280917602891718F4CA30AB
:1013800021F40BC061DFCA3049F08C2FDADF809185
:1013900076028F5F8093760201C056DFCF91089569
:1013A000BF92CF92DF92EF92FF920F931F93CF9352
:1013B000DF936B017C01C42F442311F101E010E0A5
:1013C000D1E0BB244C2F50E041505040C80102C036
:1013D000880F991F4A95E2F7AC01662757FD609583
:1013E000762F4C215D216E217F218D2F41155105D6
:1013F0006105710509F48B2D805DB9DFC15011F7CE
:10140000DF91CF911F910F91FF90EF90DF90CF90E0
:10141000BF9008951F93CF93DF93CDB7DEB72A9780
:101420000FB6F894DEBF0FBECDBFDC01CB01009735
:10143000A105B10519F0442369F435C0442399F19D
:10144000FE01319610E011921F5F141701F11A305E
:10145000D1F71DC0FE01319610E00097A105B1053E
:1014600061F0282F2F702083689413F8B695A79504
:10147000979587951694D1F703C04B3030F41082BE
:101480001F5F3196141749F702C0112361F0FE0166
:10149000E10FF11D80818A3010F0895C01C0805D10
:1014A00066DF1150A1F72A960FB6F894DEBF0FBE83
:1014B000CDBFDF91CF911F9108958F929F92AF92F0
:1014C000BF92EF92FF920F931F93CF93DF93CDB70D
:1014D000DEB72A970FB6F894DEBF0FBECDBFDC0192
:1014E000CB01042F0097A105B10519F0442371F435
:1014F00041C0442309F43EC0FE01319610E0119230
:101500001F5F101779F11A30D1F72CC07E010894B3
:10151000E11CF11C10E00F2EFAE08F2EF0E09F2E60
:10152000F0E0AF2EF0E0BF2EF02D0097A105B10541
:1015300061F0BC01CD01A501940146D2F7016083A1
:10154000822F932FA42FB52F04C00B3048F4F7013E
:1015500010821F5F0894E11CF11C101731F702C0C4
:10156000112341F0FE01E10FF11D8081805DFFDE5E
:101570001150C1F72A960FB6F894DEBF0FBECDBF4B
:10158000DF91CF911F910F91FF90EF90BF90AF909F
:101590009F908F900895AF92BF92CF92DF92EF927B
:1015A000FF920F931F93CF93DF93B82E6B0180911F
:1015B00078028B1510F4BB24B3948CE01BDED601AB
:1015C0008C918823B9F1D0E009E712E0AA248B2D91
:1015D00052DEF80180818823E9F0ED2EFF24F60128
:1015E000EE0DFF1D8081882391F1CA2D7F01BFDEA2
:1015F000CF5FD8018C91C81768F4F701EC0FF11D8B
:1016000080818823A1F780E2B2DECF5FF80180817C
:10161000C817C8F38FE39DE0A3E081509040A0403D
:10162000E1F700C00000DF5FF601ED0FF11D8081E2
:10163000882369F68EE0DEDDDF91CF911F910F9157
:10164000FF90EF90DF90CF90BF90AF900895CA2D9C
:10165000DACFCF93DF93EC018881882329F021969C
:1016600086DE89918823E1F7DF91CF9108955F921B
:101670006F927F928F929F92AF92BF92CF92DF92A2
:10168000EF92FF920F931F93CF93DF93CDB7DEB707
:101690000F2EF2E1CF2EDD24F02DCC0EDD1ED60173
:1016A000ED91FD916D018081882309F4F1C08F01D6
:1016B0005524689454F899249A948824853209F022
:1016C000DBC058010894A11CB11CF8018181982F3E
:1016D00090539A3080F43296182D110F912F990F54
:1016E000990F190F8053180F5F018191982F905314
:1016F0009A3098F301C0192D90E0859784359105B3
:1017000008F0BCC0835E9F4F8F939F93089586011E
:101710000E5F1F4FD6018C912ADE6801AFC0EE2408
:10172000FF246894E1F8EC0CFD1CF601C080D18028
:10173000DD2034F4D094C194D108D3948DE217DE27
:10174000B601882777FD8095982F412FB6DE670177
:1017500095C066247724689462F86C0C7D1CD601D1
:10176000CD90DD90ED90FC901397FF2054F4F09411
:10177000E094D094C094C11CD11CE11CF11C8DE2FA
:10178000F6DDC701B601412F98DE630177C0EE2474
:10179000FF246894E1F8EC0CFD1CF6018081918136
:1017A000BC0180E090E0412F88DE670167C0EE2435
:1017B000FF246894E2F8EC0CFD1CD6016D917D913C
:1017C0008D919C91412F79DE670158C0EE24FF2452
:1017D0006894E1F8EC0CFD1CF60180819181BC015C
:1017E00080E090E0412F16DE670148C0EE24FF2420
:1017F0006894E2F8EC0CFD1CD6016D917D918D9101
:101800009C91412F07DE670139C0EE24FF246894C4
:10181000E1F8EC0CFD1CF601808191811F3F09F479
:10182000152DBC0180E090E0412FBADD670126C094
:10183000EE24FF246894E2F8EC0CFD1CD6016D91B7
:101840007D918D919C9113971F3F09F4152D412F88
:10185000A7DD670113C0E4E0F0E0CE0EDF1E0EC08E
:10186000F60182E090E0C80ED91E80819181F1DE00
:1018700005C085E27CDD02C07ADD580185010F5F7D
:101880001F4FD50111968C911197882309F016CF1F
:10189000DF91CF911F910F91FF90EF90DF90CF904C
:1018A000BF90AF909F908F907F906F905F900895C2
:1018B00033DC38DC80ED43DC87E041DC80E03FDC7A
:1018C00037DC08951F93CF93DF93C82FD62F142FA3
:1018D00029DC80ED34DC80E032DC812F30DC8D2FA0
:1018E0002EDC8C2F2CDC24DCDF91CF911F9108950E
:1018F0001F93CF93DF93182FD62FC42F13DC80EDC7
:101900001EDC84E01CDC812F1ADC8D2F18DC8C2F70
:1019100016DC0EDCDF91CF911F910895EF92FF92BC
:101920000F931F93CF93DF937C018B01EA01FADBC6
:1019300080ED05DC80E003DCFBDBF4DB81EDFFDB2D
:1019400081E004DC888381E001DCF801808380E0B1
:10195000FDDBF7018083ECDBDF91CF911F910F91CD
:10196000FF90EF900895EF92FF920F931F93CF9304
:10197000DF93EC018B017A01D5DB80EDE0DB84E0C5
:10198000DEDBD6DBCFDB81EDDADB81E0DFDB8883FA
:1019900081E0DCDBF801808380E0D8DBF701808325
:1019A000C7DBDF91CF911F910F91FF90EF900895CA
:1019B000991B79E004C0991F961708F0961B881FA1
:1019C0007A95C9F780950895A1E21A2EAA1BBB1B30
:1019D000FD010DC0AA1FBB1FEE1FFF1FA217B307FB
:1019E000E407F50720F0A21BB30BE40BF50B661F11
:1019F000771F881F991F1A9469F7609570958095D5
:101A000090959B01AC01BD01CF010895F894FFCFE3
:101A10002020202053657474696E67732020202075
:101A200000202020202020202020202020202020D6
:101A300020003C25733E0050726573732043616E35
:101A400063656C20746F2053746F7020416C6172F9
:101A50006D002020446973706C61792D5374796C2A
:101A600065200020203C54696D65202B2044617462
:101A7000653E2020002020203C4F6E6C7920546968
:101A80006D653E2020002020446973706C61792DC3
:101A90005374796C65200A2020202055706461748D
:101AA0006564202000202054696D6520466F726DAA
:101AB0006174202020002020203C313220486F75A6
:101AC00072733E202020002020203C323420486FBA
:101AD0007572733E20202000202054696D652046D9
:101AE0006F726D61742020200A20202020557064C0
:101AF0006174656420202000486F757220204D6954
:101B00006E2020536563003C2532643E20203C2536
:101B100032643E203C2532643E0025326400416C34
:101B200061726D2053657400204444202020204DB4
:101B30004D2020205959004461746520557064611E
:101B40007465640054696D652055706461746564E2
:101B500000202020202532642F2532642F25326476
:101B600000504D00414D00202020202532643A25B0
:101B700032643A2532640025327800204578706C52
:101B80006F72652054696D652021000154696D658F
:101B900000000000000000000000000044617465C7
:101BA000000000000000000000000000416C6172B5
:101BB0006D00000000000000000000004469737028
:101BC0006C6179205374796C6500000054696D650F
:101BD00020466F726D617400000000001F0000005D
:101BE000001F1F1F1F1F1F0000001F1F1F1F1F1F81
:101BF0001F1F1E1C00000000001F1F1F1F1F1F1F94
:101C00001F1F0F071C1E1F1F1F1F1F1F1F1F1F002F
:101C100000000000070F1F1F1F1F1F1F8080C090A4
:021C2000D000F2
:00000001FF
