:1000000070C08AC089C088C087C086C085C084C0CF
:1000100083C082C081C080C07FC07EC07DC07CC0E4
:100020007BC07AC079C09DC0B4C0CBC0E2C0F9C06B
:1000300010C127C13EC155C16CC116CC1ACC19CC18
:1000400018CC17CC16CC15CC14CC13CC12CC11CCAC
:1000500010CC0FCC0ECC0DCC0CCC0BCC0ACC09CCDC
:1000600008CC07CC06CC05CC04CC03CC02CC01CC0C
:1000700000CCFFCBD8CB46CB67CBFBCBE7CBF9CBC8
:10008000F8CBF7CBF6CBF5CBF4CBF3CBF2CBF1CB74
:10009000F0CBEFCBEECBDFCBECCB84CBEACBE9CB19
:1000A000A0CBE7CBE6CBE5CBE4CBE3CBE2CBE1CB1C
:1000B000E0CBDFCBA5CB26CB2DCBDBCBC7CBD9CBB6
:1000C000D8CBD7CBD6CBD5CBD4CBD3CBD2CBD1CB34
:1000D000D0CBCFCBCECBBFCBCCCB54CBCACBC9CBE9
:1000E00070CB11241FBECFE5D4E0DEBFCDBF12E040
:1000F000A0E6B0E0E6E0FAE102C005900D92A63578
:10010000B107D9F712E0A6E5B2E001C01D92AF3504
:10011000B107E1F75FD775CC73CF0F931F93CF93E0
:10012000DF93082F192F862F880F880F880F805C88
:100130005CD8C02FD12F18E0899190E0FDD81150E4
:10014000D9F7DF91CF911F910F910895CF93C62FCB
:10015000E82FF0E0EA30F10508F0F2C0ED5EFF4F65
:10016000099481E058D880E090E0E6D881E090E002
:10017000E3D882E090E0E0D882E06C2F4CD883E0B6
:1001800090E0DAD884E090E0D7D885E090E0D4D849
:10019000D7C081E040D881E090E0CED882E090E006
:1001A000CBD880E290E0C8D882E06C2F34D880E2CF
:1001B00090E0C2D88FEF90E0BFD880E290E0BCD84A
:1001C000BFC081E028D886E090E0B6D886E090E015
:1001D000B3D882E090E0B0D882E06C2F1CD883E0E6
:1001E00090E0AAD887E090E0A7D887E090E0A4D874
:1001F000A7C081E010D886E090E09ED886E090E02D
:100200009BD882E090E098D882E06C2F04D887E0F9
:1002100090E092D887E090E08FD885E090E08CD88D
:100220008FC081E0F8D783E090E086D884E090E04A
:1002300083D882E090E080D882E06C2FECD780E217
:1002400090E07AD880E290E077D88FEF90E074D891
:1002500077C081E0E0D78FEF90E06ED886E090E045
:100260006BD886E090E068D882E06C2FD4D787E026
:1002700090E062D887E090E05FD885E090E05CD8BD
:100280005FC081E0C8D788E090E056D886E090E073
:1002900053D886E090E050D882E06C2FBCD783E042
:1002A00090E04AD887E090E047D885E090E044D8D5
:1002B00047C081E0B0D781E090E03ED881E090E097
:1002C0003BD882E090E038D882E06C2FA4D780E25F
:1002D00090E032D888E090E02FD880E290E02CD8EF
:1002E0002FC081E098D780E090E026D886E090E0AB
:1002F00023D882E090E020D882E06C2F8CD783E076
:1003000090E01AD887E090E017D885E090E014D804
:1003100017C081E080D788E090E00ED886E090E0BA
:100320000BD882E090E008D882E06C2F74D780E28E
:1003300090E002D880E290E0FFD78FEF90E0FCD70A
:10034000CF910895AF92BF92CF92DF92EF92FF923A
:100350000F931F93CF93DF9398D781E087D780E6E1
:1003600090E072D9C0E0D0E00F2EF1E7CF2EF0E0A0
:10037000DF2EF02D0F2EFEE0EF2EFF24F02D0F2E9E
:10038000F2E8AF2EF0E0BF2EF02D829B63C085997E
:100390000AC0CF5F8FEF90E7A2E081509040A0406D
:1003A000E1F700C0000084990AC0C1508FEF90E7C8
:1003B000A2E081509040A040E1F700C000008C2FE7
:1003C0008C5F893020F4CC231CF4CB5F01C0CD2F8F
:1003D00082E04CD7C60138D90C2F112707FD1095A4
:1003E00002951295107F1027007F10270F531E4F84
:1003F000A02FB12FFD0101900020E9F73197EA1BF2
:10040000FB0BB7016E1B7F0B7695679582E003D7D8
:1004100000D000D0ADB7BEB71296BC92AE92119785
:1004200014961C930E9313971DD98FEF90E7A2E0BB
:1004300081509040A040E1F700C000000F900F9065
:100440000F900F908399A1CF829B06C08399FCCF18
:100450008C2F03C08FEF01C08FEFDF91CF911F91E1
:100460000F91FF90EF90DF90CF90BF90AF900895E5
:100470000F931F93CF93DF9300D00F92CDB7DEB7CA
:10048000CE010196BE016E5F7F4FAE014D5F5F4FA3
:1004900040DA21E0909157028981981320E081E0B1
:1004A000309159029A81391380E0282330E081E0AD
:1004B00090E0509156024B81541711F080E090E08B
:1004C00082239323009789F0E0D607E810E081E0CB
:1004D000CDD600D0EDB7FEB712830183C3D80F90FD
:1004E0000F908299F4CFC398D0D60F900F900F90B1
:1004F000DF91CF911F910F9108950F931F93CF9389
:10050000DF93C3D681E0B2D600D082EA90E0ADB7E7
:10051000BEB712969C938E931197A4D80F900F900C
:10052000C2ECD0E002EB10E082E0A0D68FEF90E7C3
:10053000A2E081509040A040E1F700C00000829B03
:1005400057C085990EC0809158028F5F80935802E2
:100550008FEF91EEA4E081509040A040E1F700C001
:10056000000084990EC080915802815080935802F7
:100570008FEF91EEA4E081509040A040E1F700C0E1
:10058000000080915802823018F0109258020DC07D
:10059000813059F400D0ADB7BEB712961C930E93BC
:1005A000119760D80F900F9008C000D0EDB7FEB73C
:1005B000D283C18357D80F900F908399B5CF829B78
:1005C00017C08399FCCF00D081ED90E0ADB7BEB7E6
:1005D00012969C938E93119745D88FEF93EDA0E3DD
:1005E00081509040A040E1F700C000000F900F90B4
:1005F000DF91CF911F910F9108950F931F93CF9388
:10060000DF9343D681E032D600D087EE90E0ADB7DD
:10061000BEB712969C938E93119724D80F900F908B
:10062000C9E0D1E008EF10E082E020D68FEF90E73C
:10063000A2E081509040A040E1F700C00000829B02
:1006400057C085990EC08091C0018F5F8093C00113
:100650008FEF91EEA4E081509040A040E1F700C000
:10066000000084990EC08091C00181508093C00128
:100670008FEF91EEA4E081509040A040E1F700C0E0
:1006800000008091C001823018F01092C0010DC0AE
:10069000813059F400D0ADB7BEB712961C930E93BB
:1006A0001197E0D70F900F9008C000D0EDB7FEB7BC
:1006B000D283C183D7D70F900F908399B5CF829BF8
:1006C00017C08399FCCF00D08AE191E0ADB7BEB7E7
:1006D00012969C938E931197C5D78FEF93EDA0E35D
:1006E00081509040A040E1F700C000000F900F90B3
:1006F000DF91CF911F910F9108956AE054D98295AF
:10070000807F890F0895982F92959F70990F292FB8
:10071000220F220F920F8F70890F0895EF92FF9290
:100720000F931F93CF93DF9380915702ECDFC82F75
:1007300080915902E8DFD82F80915602E4DFF82E2D
:10074000A4D581E093D500D08EE291E0ADB7BEB7DD
:1007500012969C938E93119785D70F900F9082E0FD
:1007600085D5EDB7FEB738970FB6F894FEBF0FBE2C
:10077000EDBF31968DE391E0ADB7BEB712969C9375
:100780008E931197C2831382D4831582F6821782C7
:1007900069D7EDB7FEB738960FB6F894FEBF0FBE17
:1007A000EDBFEE2400E511E082E061E034D58FEF8B
:1007B00090E7A2E081509040A040E1F700C0000027
:1007C000829BD5C085990AC0CF5F8FEF91EEA4E0E0
:1007D00081509040A040E1F700C0000084990AC019
:1007E000C1508FEF91EEA4E081509040A040E1F71E
:1007F00000C00000C83108F0CE2D00D000D0EDB709
:10080000FEB73196ADB7BEB712961C930E931197F3
:10081000C283138227D70F900F900F900F90839968
:10082000C3CF829BA4C08399FCCFEE2400E511E0E6
:1008300082E067E0F0D48FEF90E7A2E08150904033
:10084000A040E1F700C00000829B91C085990AC0DA
:10085000DF5F8FEF91EEA4E081509040A040E1F780
:1008600000C0000084990AC0D1508FEF91EEA4E03F
:1008700081509040A040E1F700C00000DC3308F058
:10088000DE2D00D000D0EDB7FEB73196ADB7BEB7C4
:1008900012961C930E931197D2831382E3D60F9076
:1008A0000F900F900F908399C3CF829B60C0839964
:1008B000FCCFEE2400E511E082E06CE0ACD48FEFD9
:1008C00090E7A2E081509040A040E1F700C0000016
:1008D000829B4DC085990AC0F3948FEF91EEA4E0FE
:1008E00081509040A040E1F700C0000084990AC008
:1008F000FA948FEF91EEA4E081509040A040E1F790
:1009000000C000009BE39F1508F4FE2C00D000D02F
:10091000EDB7FEB73196ADB7BEB712961C930E93E6
:100920001197F28213829ED60F900F900F900F9026
:100930008399C2CF829B1BC08399FCCF8C2FDDDEB5
:10094000809357028D2FD9DE809359028F2DD5DEEB
:10095000809356029AD484E591E076D68FEF93ED9A
:10096000A0E381509040A040E1F700C00000DF917B
:10097000CF911F910F91FF90EF900895EF92FF920A
:100980000F931F93CF93DF93D62F042FBCDEC82F76
:100990008D2FB9DED82F802FB6DEF82E76D481E0E9
:1009A00065D400D08EE591E0ADB7BEB712969C93AA
:1009B0008E93119757D60F900F9082E057D4EDB7D2
:1009C000FEB738970FB6F894FEBF0FBEEDBF319655
:1009D0008DE391E0ADB7BEB712969C938E931197BD
:1009E000C2831382D4831582F68217823BD6EDB779
:1009F000FEB738960FB6F894FEBF0FBEEDBFEE24DB
:100A000000E511E082E061E006D48FEF90E7A2E01C
:100A100081509040A040E1F700C00000829BD5C00B
:100A200085990AC0CF5F8FEF91EEA4E0815090408E
:100A3000A040E1F700C0000084990AC0C1508FEFC8
:100A400091EEA4E081509040A040E1F700C000008A
:100A5000C03208F0CE2D00D000D0EDB7FEB73196F1
:100A6000ADB7BEB712961C930E931197C283138233
:100A7000F9D50F900F900F900F908399C3CF829B61
:100A8000A4C08399FCCFEE2400E511E082E067E08A
:100A9000C2D38FEF90E7A2E081509040A040E1F7F1
:100AA00000C00000829B91C085990AC0DF5F8FEF74
:100AB00091EEA4E081509040A040E1F700C000001A
:100AC00084990AC0D1508FEF91EEA4E081509040FC
:100AD000A040E1F700C00000DD3008F0DE2D00D0BE
:100AE00000D0EDB7FEB73196ADB7BEB712961C93E6
:100AF0000E931197D2831382B5D50F900F900F905C
:100B00000F908399C3CF829B60C08399FCCFEE2462
:100B100000E511E082E06CE07ED38FEF90E7A2E089
:100B200081509040A040E1F700C00000829B4DC082
:100B300085990AC0F3948FEF91EEA4E08150904024
:100B4000A040E1F700C0000084990AC0FA948FEF3A
:100B500091EEA4E081509040A040E1F700C0000079
:100B600092E69F1508F4FE2C00D000D0EDB7FEB73A
:100B70003196ADB7BEB712961C930E931197F282C1
:100B8000138270D50F900F900F900F908399C2CF62
:100B9000829B1BC08399FCCF8C2FAFDD082F8D2F3C
:100BA000ACDDC82F8F2DA9DD482F802F6C2F9BD651
:100BB0006CD38DE691E048D58FEF93EDA0E38150A3
:100BC0009040A040E1F700C00000DF91CF911F915D
:100BD0000F91FF90EF900895EF92FF920F931F9364
:100BE000CF93DF93D62F042F8EDDC82F8D2F8BDD73
:100BF000D82F802F88DDF82E48D381E037D300D05E
:100C00008EE291E0ADB7BEB712969C938E9311978A
:100C100029D50F900F9082E029D3EDB7FEB7389712
:100C20000FB6F894FEBF0FBEEDBF31968DE391E095
:100C3000ADB7BEB712969C938E931197C283138261
:100C4000D4831582F68217820DD5EDB7FEB738969C
:100C50000FB6F894FEBF0FBEEDBFEE2400E511E025
:100C600082E061E0D8D28FEF90E7A2E0815090401F
:100C7000A040E1F700C00000829BD5C085990AC062
:100C8000CF5F8FEF91EEA4E081509040A040E1F75C
:100C900000C0000084990AC0C1508FEF91EEA4E01B
:100CA00081509040A040E1F700C00000C83108F03A
:100CB000CE2D00D000D0EDB7FEB73196ADB7BEB7A0
:100CC00012961C930E931197C2831382CBD40F906C
:100CD0000F900F900F908399C3CF829BA4C08399EC
:100CE000FCCFEE2400E511E082E067E094D28FEFC4
:100CF00090E7A2E081509040A040E1F700C00000E2
:100D0000829B91C085990AC0DF5F8FEF91EEA4E0CE
:100D100081509040A040E1F700C0000084990AC0D3
:100D2000D1508FEF91EEA4E081509040A040E1F7C8
:100D300000C00000DC3308F0DE2D00D000D0EDB79D
:100D4000FEB73196ADB7BEB712961C930E931197AE
:100D5000D283138287D40F900F900F900F908399B6
:100D6000C3CF829B60C08399FCCFEE2400E511E0E5
:100D700082E06CE050D28FEF90E7A2E0815090408B
:100D8000A040E1F700C00000829B4DC085990AC0D9
:100D9000F3948FEF91EEA4E081509040A040E1F7F2
:100DA00000C0000084990AC0FA948FEF91EEA4E08D
:100DB00081509040A040E1F700C000009BE39F15E8
:100DC00008F4FE2C00D000D0EDB7FEB73196ADB7D9
:100DD000BEB712961C930E931197F282138242D4DF
:100DE0000F900F900F900F908399C2CF829B1BC0E2
:100DF0008399FCCF8C2F81DC082F8D2F7EDCC82FB0
:100E00008F2D7BDC482F802F6C2F57D53ED28AE761
:100E100091E01AD48FEF93EDA0E381509040A04071
:100E2000E1F700C00000DF91CF911F910F91FF907B
:100E3000EF9008951F93CF93DF93D82FC62F142FD1
:100E400080915802813071F582E010D28D2F5BDCE9
:100E5000D82F8C2F58DCC82F812F55DC2DB73EB7EB
:100E6000285030400FB6F8943EBF0FBE2DBFEDB7EF
:100E7000FEB7319627E831E0ADB7BEB712963C9386
:100E80002E931197D2831382C4831582868317828F
:100E9000E9D32DB73EB7285F3F4F0FB6F8943EBF5A
:100EA0000FBE2DBFDF91CF911F9108950F931F9318
:100EB000CF93DF93162FD42F26DCC82F812F23DC6E
:100EC000082F8D2F20DC182F8091C0018130F9F47C
:100ED0006EE0A1D1CD3070F0CC5000D087E991E028
:100EE000ADB7BEB712969C938E931197BBD30F905C
:100EF0000F900DC0CC2309F4CCE000D08AE991E03A
:100F0000EDB7FEB792838183ADD30F900F908091A0
:100F10005802813021F5AAD18DB79EB708970FB638
:100F2000F8949EBF0FBE8DBFEDB7FEB731968DE929
:100F300091E0ADB7BEB712969C938E931197C28382
:100F4000138204831582168317828CD3EDB7FEB704
:100F500038960FB6F894FEBF0FBEEDBF36C01AE04C
:100F60008C2F612F20D5C92F60E0F0D88C2F63E043
:100F7000EDD881E066E04FD185EA90E0DDD182E0F6
:100F800066E049D185EA90E0D7D1802F612F0BD55B
:100F9000C92F67E0DBD88C2F6AE0D8D882E06EE0FA
:100FA0003AD100D000D0EDB7FEB731968DEA91E08E
:100FB000ADB7BEB712969C938E931197D2831382CE
:100FC00051D30F900F900F900F90DF91CF911F9101
:100FD0000F910895CF93DF9300D000D000D0CDB70C
:100FE000DEB780EF81BB8FEF82BBBB9A84E062E00B
:100FF00040E150D100D081EB91E0ADB7BEB7129681
:101000009C938E9311972ED38FEF99E6A8E1815090
:101010009040A040E1F700C000000F900F9043D433
:1010200089E492E060E079D881E492E061E075D8EB
:1010300089E392E062E071D881E392E063E06DD8E9
:1010400089E292E064E069D881E292E065E065D8E7
:1010500089E192E066E061D881E192E067E05DD8E5
:1010600083E260E440E229D484E161E142E13BD4DF
:10107000839923C0839BFECF65D98230B1F0833042
:1010800028F4882341F08130A9F40AC0833079F034
:10109000843081F40EC08B816A8149819DDD0AC054
:1010A0008C816D814E816ADC05C038DB03C025DA96
:1010B00001C0A3DA8299E0CFE8D0CE010396BE0149
:1010C0006E5F7F4FAE014F5F5F4F23D4CE0104961A
:1010D000BE016B5F7F4FAE014A5F5F4F3FD48B8194
:1010E0006A814981E3DE8C816D814E81A3DEC0D9A6
:1010F000BFCF009759F02FEF39E648E1215030403B
:101100004040E1F700C000000197A9F7089511B829
:1011100080E580B984E086BF089584EA86BF06B67C
:1011200007FEFDCF089584E986BF8AE18A95F1F72D
:1011300000C0089583B984E886BF06B607FEFDCFD8
:1011400008958295880F880F807C846886BF06B6D4
:1011500007FEFDCF83B10895982F84FF02C0C49A83
:1011600001C0C49895FF02C0C59A01C0C59896FFFA
:1011700002C0C69A01C0C698882314F4C79A08957D
:10118000C7980895BF98C098C19AEEE5F2E0C2985A
:101190008AE18A95F1F700C0C29A9AE19A95F1F72F
:1011A00000C086B39081943051F4C2989AE19A9528
:1011B000F1F700C0C29A9AE19A95F1F700C088232E
:1011C00034F3BF9A0895C098C198C29A8AE18A956B
:1011D000F1F700C0C2980895C09AC198C29A8AE1F6
:1011E0008A95F1F700C0C2980895CF93C82FCADF3F
:1011F00080915E02883019F4C8BBE5DF0AC08430F4
:1012000041F48C2FA9DFDFDF8C2F8295807FA4DF54
:10121000DADFCF91089590915C02981778F0909161
:101220005D02691758F460935A0280935B02E1E50E
:10123000F2E0E80FF11D8081860FD7DF08958091DD
:101240005B028F5F80935B0210925A0290915C0266
:10125000981718F481E080935B0280915B02E1E5CE
:10126000F2E0E80FF11D8081C0DF089590915C02EB
:10127000981750F010925A0280935B02E1E5F2E079
:10128000E80FF11D8081B1DF089581E0AEDF81E0DC
:10129000EDDF08959FEF97BB97BB80935E0240936D
:1012A0005D0260935C02633040F04F70842F805782
:1012B000809354024053409355028FEF90E7A2E091
:1012C00081509040A040E1F700C0000080915E0294
:1012D000883019F488E389DF2BC0843049F580E336
:1012E0003BDF71DF8FEF90E7A2E081509040A0409C
:1012F000E1F700C0000080E32FDF65DFAFE8B1E079
:101300001197F1F700C0000080E326DF5CDF8FE873
:1013100091E00197F1F700C0000080E21DDF53DF8C
:10132000AFE8B1E01197F1F700C0000088E25DDF9F
:101330008FE05BDFAADF0895CF93C82F23DF809172
:101340005E02883019F4C8BB47DF0AC0843041F41C
:101350008C2F02DF41DF8C2F8295807FFDDE3CDF0A
:10136000CF910895CF93C82F90915D0280915A023A
:10137000891718F4CA3021F40BC061DFCA3049F074
:101380008C2FDADF80915A028F5F80935A0201C05E
:1013900056DFCF910895BF92CF92DF92EF92FF92E6
:1013A0000F931F93CF93DF936B017C01C42F4423D2
:1013B00011F101E010E0D1E0BB244C2F50E041508E
:1013C0005040C80102C0880F991F4A95E2F7AC014E
:1013D000662757FD6095762F4C215D216E217F2178
:1013E0008D2F411551056105710509F48B2D805D27
:1013F000B9DFC15011F7DF91CF911F910F91FF908D
:10140000EF90DF90CF90BF9008951F93CF93DF931D
:10141000CDB7DEB72A970FB6F894DEBF0FBECDBFAB
:10142000DC01CB010097A105B10519F0442369F453
:1014300035C0442399F1FE01319610E011921F5FEF
:10144000141701F11A30D1F71DC0FE01319610E0DA
:101450000097A105B10561F0282F2F7020836894B3
:1014600013F8B695A795979587951694D1F703C06D
:101470004B3030F410821F5F3196141749F702C0C9
:10148000112361F0FE01E10FF11D80818A3010F01F
:10149000895C01C0805D66DF1150A1F72A960FB606
:1014A000F894DEBF0FBECDBFDF91CF911F9108959D
:1014B0008F929F92AF92BF92EF92FF920F931F93E2
:1014C000CF93DF93CDB7DEB72A970FB6F894DEBF80
:1014D0000FBECDBFDC01CB01042F0097A105B105E4
:1014E00019F0442371F441C0442309F43EC0FE01C5
:1014F000319610E011921F5F101779F11A30D1F771
:101500002CC07E010894E11CF11C10E00F2EFAE0C3
:101510008F2EF0E09F2EF0E0AF2EF0E0BF2EF02DEA
:101520000097A105B10561F0BC01CD01A5019401B1
:1015300046D2F7016083822F932FA42FB52F04C0CA
:101540000B3048F4F70110821F5F0894E11CF11C76
:10155000101731F702C0112341F0FE01E10FF11D18
:101560008081805DFFDE1150C1F72A960FB6F89496
:10157000DEBF0FBECDBFDF91CF911F910F91FF90C6
:10158000EF90BF90AF909F908F900895AF92BF92D1
:10159000CF92DF92EF92FF920F931F93CF93DF933F
:1015A000B82E6B0180915C028B1510F4BB24B394B0
:1015B0008CE01BDED6018C918823B9F1D0E00DE5DB
:1015C00012E0AA248B2D52DEF80180818823E9F0F5
:1015D000ED2EFF24F601EE0DFF1D8081882391F191
:1015E000CA2D7F01BFDECF5FD8018C91C81768F488
:1015F000F701EC0FF11D80818823A1F780E2B2DEB4
:10160000CF5FF8018081C817C8F38FE39DE0A3E0A6
:1016100081509040A040E1F700C00000DF5FF6017C
:10162000ED0FF11D8081882369F68EE0DEDDDF910C
:10163000CF911F910F91FF90EF90DF90CF90BF90CF
:10164000AF900895CA2DDACFCF93DF93EC01888154
:10165000882329F0219686DE89918823E1F7DF919E
:10166000CF9108955F926F927F928F929F92AF92E7
:10167000BF92CF92DF92EF92FF920F931F93CF937F
:10168000DF93CDB7DEB70F2EF2E1CF2EDD24F02DA4
:10169000CC0EDD1ED601ED91FD916D018081882378
:1016A00009F4F1C08F015524689454F899249A9450
:1016B0008824853209F0DBC058010894A11CB11CB4
:1016C000F8018181982F90539A3080F43296182D2A
:1016D000110F912F990F990F190F8053180F5F0158
:1016E0008191982F90539A3098F301C0192D90E072
:1016F00085978435910508F0BCC0835E9F4F8F931A
:101700009F93089586010E5F1F4FD6018C912ADEAC
:101710006801AFC0EE24FF246894E1F8EC0CFD1CD6
:10172000F601C080D180DD2034F4D094C194D1087A
:10173000D3948DE217DEB601882777FD8095982F28
:10174000412FB6DE670195C066247724689462F85D
:101750006C0C7D1CD601CD90DD90ED90FC90139724
:10176000FF2054F4F094E094D094C094C11CD11C98
:10177000E11CF11C8DE2F6DDC701B601412F98DEB8
:10178000630177C0EE24FF246894E1F8EC0CFD1CA3
:10179000F60180819181BC0180E090E0412F88DEDC
:1017A000670167C0EE24FF246894E2F8EC0CFD1C8E
:1017B000D6016D917D918D919C91412F79DE6701CC
:1017C00058C0EE24FF246894E1F8EC0CFD1CF601EF
:1017D00080819181BC0180E090E0412F16DE67019D
:1017E00048C0EE24FF246894E2F8EC0CFD1CD601FE
:1017F0006D917D918D919C91412F07DE670139C0DC
:10180000EE24FF246894E1F8EC0CFD1CF6018081C5
:1018100091811F3F09F4152DBC0180E090E0412F1C
:10182000BADD670126C0EE24FF246894E2F8EC0CD0
:10183000FD1CD6016D917D918D919C9113971F3F59
:1018400009F4152D412FA7DD670113C0E4E0F0E096
:10185000CE0EDF1E0EC0F60182E090E0C80ED91E4B
:1018600080819181F1DE05C085E27CDD02C07ADDF8
:10187000580185010F5F1F4FD50111968C9111976B
:10188000882309F016CFDF91CF911F910F91FF9020
:10189000EF90DF90CF90BF90AF909F908F907F9010
:1018A0006F905F90089533DC38DC80ED43DC87E097
:1018B00041DC80E03FDC37DC08951F93CF93DF935A
:1018C000C82FD62F142F29DC80ED34DC80E032DCE9
:1018D000812F30DC8D2F2EDC8C2F2CDC24DCDF9153
:1018E000CF911F9108951F93CF93DF93182FD62F79
:1018F000C42F13DC80ED1EDC84E01CDC812F1ADC9D
:101900008D2F18DC8C2F16DC0EDCDF91CF911F9110
:101910000895EF92FF920F931F93CF93DF937C0173
:101920008B01EA01FADB80ED05DC80E003DCFBDB08
:10193000F4DB81EDFFDB81E004DC888381E001DC06
:10194000F801808380E0FDDBF7018083ECDBDF9131
:10195000CF911F910F91FF90EF900895EF92FF921A
:101960000F931F93CF93DF93EC018B017A01D5DBAB
:1019700080EDE0DB84E0DEDBD6DBCFDB81EDDADBA4
:1019800081E0DFDB888381E0DCDBF801808380E0BD
:10199000D8DBF7018083C7DBDF91CF911F910F91D7
:1019A000FF90EF900895991B79E004C0991F961756
:1019B00008F0961B881F7A95C9F780950895A1E2D3
:1019C0001A2EAA1BBB1BFD010DC0AA1FBB1FEE1FB9
:1019D000FF1FA217B307E407F50720F0A21BB30B04
:1019E000E40BF50B661F771F881F991F1A9469F780
:1019F00060957095809590959B01AC01BD01CF01DC
:061A00000895F894FFCFE9
:101A06002020202053657474696E6773202020207F
:101A160000202020202020202020202020202020E0
:101A260020003C25733E0050726573732043616E3F
:101A360063656C20746F2053746F7020416C617203
:101A46006D0020446973706C61792D5374796C65EF
:101A5600200020203C54696D65202B20446174656C
:101A66003E002020203C4F6E6C792054696D653E07
:101A760000446973706C6179205374796C652055E4
:101A860070646174656400202054696D6520466F3A
:101A9600726D6174202020002020203C31322048C5
:101AA6006F7572733E202020002020203C323420A7
:101AB600486F7572733E2020200054696D6520467C
:101AC6006F726D6174205570646174656400486F4F
:101AD600757220204D696E2020536563003C2532C7
:101AE600643E20203C2532643E203C2532643E0084
:101AF60025326400416C61726D2053657400204488
:101B060044202020204D4D20202059590044617446
:101B16006520557064617465640054696D6520556F
:101B260070646174656400202020202532642F25AE
:101B360032642F25326400504D00414D0020202094
:101B4600202532643A2532643A25326400253278FB
:101B5600004578706C6F72652054696D65202100B0
:101B66000154696D650000000000000000000000DF
:101B760000446174650000000000000000000000E1
:101B860000416C61726D0000000000000000000062
:101B960000446973706C6179205374796C65000038
:101BA6000054696D6520466F726D61740000000017
:101BB600001F000000001F1F1F1F1F1F0000001F27
:101BC6001F1F1F1F1F1F1F1E1C00000000001F1FBE
:101BD6001F1F1F1F1F1F1F0F071C1E1F1F1F1F1F3B
:101BE6001F1F1F1F0000000000070F1F1F1F1F1FC2
:061BF6001F8080C090D0AA
:00000001FF
