:1000000070C08AC089C088C087C086C085C084C0CF
:1000100083C082C081C080C07FC07EC07DC07CC0E4
:100020007BC07AC079C0A0C0B7C0CEC0E5C0FCC05C
:1000300013C12AC141C158C16FC119C91DC91CC909
:100040001BC91AC919C918C917C916C915C914C9AC
:1000500013C912C911C910C90FC90EC90DC90CC9DC
:100060000BC90AC909C908C907C906C905C904C90C
:1000700003C902C9DBC849C86AC8FEC8EAC8FCC8C7
:10008000FBC8FAC8F9C8F8C8F7C8F6C8F5C8F4C874
:10009000F3C8F2C8F1C8E2C8EFC887C8EDC8ECC819
:1000A000A3C8EAC8E9C8E8C8E7C8E6C8E5C8E4C81C
:1000B000E3C8E2C8A8C829C830C8DEC8CAC8DCC8B6
:1000C000DBC8DAC8D9C8D8C8D7C8D6C8D5C8D4C834
:1000D000D3C8D2C8D1C8C2C8CFC857C8CDC8CCC8E9
:1000E00073C811241FBECFE5D4E0DEBFCDBF11E041
:1000F000A0E6B0E0E0E3F5E102C005900D92AC3877
:10010000B107D9F711E0ACE8B1E001C01D92A43904
:10011000B107E1F779D40ACA73CFCF93DF93EC012B
:10012000862F880F880F880F805C62D510928E0111
:1001300080E0FE01E80FF11D808190E000D6809103
:100140008E018F5F80938E01883098F3DF91CF917D
:100150000895CF93C62FE82FF0E0EA30F10508F0BC
:10016000F2C0ED5EFF4F099481E058D580E090E049
:10017000E6D581E090E0E3D582E090E0E0D582E052
:100180006C2F4CD583E090E0DAD584E090E0D7D5B1
:1001900085E090E0D4D5D7C081E040D581E090E003
:1001A000CED582E090E0CBD580E290E0C8D582E069
:1001B0006C2F34D580E290E0C2D58FEF90E0BFD5B0
:1001C00080E290E0BCD5BFC081E028D586E090E019
:1001D000B6D586E090E0B3D582E090E0B0D582E07D
:1001E0006C2F1CD583E090E0AAD587E090E0A7D5DE
:1001F00087E090E0A4D5A7C081E010D586E090E02C
:100200009ED586E090E09BD582E090E098D582E094
:100210006C2F04D587E090E092D587E090E08FD5F1
:1002200085E090E08CD58FC081E0F8D483E090E049
:1002300086D584E090E083D582E090E080D582E0AE
:100240006C2FECD480E290E07AD580E290E077D514
:100250008FEF90E074D577C081E0E0D48FEF90E02D
:100260006ED586E090E06BD586E090E068D582E0C0
:100270006C2FD4D487E090E062D587E090E05FD522
:1002800085E090E05CD55FC081E0C8D488E090E074
:1002900056D586E090E053D586E090E050D582E0D8
:1002A0006C2FBCD483E090E04AD587E090E047D53E
:1002B00085E090E044D547C081E0B0D481E090E093
:1002C0003ED581E090E03BD582E090E038D582E0F9
:1002D0006C2FA4D480E290E032D588E090E02FD556
:1002E00080E290E02CD52FC081E098D480E090E0AF
:1002F00026D586E090E023D582E090E020D582E00C
:100300006C2F8CD483E090E01AD587E090E017D56D
:1003100085E090E014D517C081E080D488E090E0BB
:100320000ED586E090E00BD582E090E008D582E023
:100330006C2F74D480E290E002D580E290E0FFD48C
:100340008FEF90E0FCD4CF9108951F93CF93DF936C
:10035000182FD62FC42F682F62956F7070E080E041
:1003600090E052D823D8862F60E0F3DE1F70612F13
:1003700070E080E090E048D819D8862F63E0E9DE8D
:1003800081E066E04BD485EA90E0D9D482E066E073
:1003900045D485EA90E0D3D46D2F62956F7070E0FC
:1003A00080E090E031D8DC01CB01BC01CD01FED76B
:1003B000862F67E0CEDEDF706D2F70E080E090E08A
:1003C00023D8F4D7862F6AE0C4DE82E06EE026D41C
:1003D00000D000D0EDB7FEB7319680E690E0ADB723
:1003E000BEB712969C938E931197C28313823DD60B
:1003F0000F900F900F900F90DF91CF911F91089564
:10040000AF92BF92CF92DF92EF92FF920F931F9322
:10041000CF93DF933DD481E02CD484E690E017D6CF
:10042000C0E0D0E00F2EF5E7CF2EF0E0DF2EF02D6C
:100430000F2EFEE0EF2EFF24F02D0F2EF6E8AF2E4C
:10044000F0E0BF2EF02D85990AC0CF5F8FEF90E7C7
:10045000A2E081509040A040E1F700C000008499E4
:100460000AC0C1508FEF90E7A2E081509040A040B9
:10047000E1F700C000008C2F8C5F893020F4CC2382
:100480001CF4CB5F01C0CD2F82E0F3D3C601DFD5D2
:100490000C2F112707FD109502951295107F10273C
:1004A000007F10270A501F4FA02FB12FFD01019090
:1004B0000020E9F73197EA1BFB0BB7016E1B7F0B9E
:1004C0007695679582E0AAD300D000D0ADB7BEB7CD
:1004D0001296BC92AE92119714961C930E9313979A
:1004E000C4D58FEF90E7A2E081509040A040E1F7A3
:1004F00000C000000F900F900F900F908399A3CF32
:10050000839BFECF8C2FDF91CF911F910F91FF9096
:10051000EF90DF90CF90BF90AF900895B9D38BE864
:1005200090E095D5C39A8399FDCF839BFECFC39866
:1005300008956AE0CDD78295807F890F0895982F1E
:1005400092959F70990F292F220F220F920F8F7073
:10055000890F0895EF92FF920F931F93CF93DF932C
:10056000D62F142FECDFC82F8D2FE9DFD82F812F46
:10057000E6DF182F8DD381E07CD300D089E990E0AD
:10058000ADB7BEB712969C938E9311976ED50F9010
:100590000F9082E06ED3EDB7FEB738970FB6F894A0
:1005A000FEBF0FBEEDBF319688EA90E0ADB7BEB793
:1005B00012969C938E931197C2831382D4831582D3
:1005C0001683178252D5EDB7FEB738960FB6F8945A
:1005D000FEBF0FBEEDBF00E00F2EFBEBEF2EF0E0F5
:1005E000FF2EF02D82E061E019D38FEF90E7A2E0BB
:1005F00081509040A040E1F700C0000085990AC0FA
:10060000CF5F8FEF91EEA4E081509040A040E1F7E2
:1006100000C0000084990AC0C1508FEF91EEA4E0A1
:1006200081509040A040E1F700C00000C03208F0C7
:10063000C02F00D000D0EDB7FEB73196ADB7BEB732
:100640001296FC92EE921197C28313820ED50F90F0
:100650000F900F900F908399C5CF839BFECF00E042
:100660000F2EFBEBEF2EF0E0FF2EF02D82E067E087
:10067000D5D28FEF90E7A2E081509040A040E1F703
:1006800000C0000085990AC0DF5F8FEF91EEA4E003
:1006900081509040A040E1F700C0000084990AC05A
:1006A000D1508FEF91EEA4E081509040A040E1F74F
:1006B00000C00000DD3008F0D02F00D000D0EDB732
:1006C000FEB73196ADB7BEB71296FC92EE92119777
:1006D000D2831382CAD40F900F900F900F908399FA
:1006E000C5CF839BFECF00E00F2EFBEBEF2EF0E09B
:1006F000FF2EF02D82E06CE091D28FEF90E7A2E028
:1007000081509040A040E1F700C0000085990AC0E8
:100710001F5F8FEF91EEA4E081509040A040E1F781
:1007200000C0000084990AC011508FEF91EEA4E040
:1007300081509040A040E1F700C00000133608F05F
:10074000102F00D000D0EDB7FEB73196ADB7BEB7D1
:100750001296FC92EE9211971283138286D40F9018
:100760000F900F900F908399C5CF839BFECF8C2F56
:10077000E0DE082F8D2FDDDEC82F812FDADE482F37
:10078000802F6C2FB3D584D28FEB90E060D48FEFA5
:1007900093EDA0E381509040A040E1F700C000003D
:1007A000DF91CF911F910F91FF90EF900895EF92FD
:1007B000FF920F931F93CF93DF93D62F142FBFDE9B
:1007C000C82F8D2FBCDED82F812FB9DE182F60D215
:1007D00081E04FD200D08CEC90E0ADB7BEB712965E
:1007E0009C938E93119741D40F900F9082E041D249
:1007F000EDB7FEB738970FB6F894FEBF0FBEEDBF4A
:10080000319688EA90E0ADB7BEB712969C938E936E
:100810001197C2831382D48315821683178225D43D
:10082000EDB7FEB738960FB6F894FEBF0FBEEDBF1A
:1008300000E00F2EFBEBEF2EF0E0FF2EF02D82E01C
:1008400061E0ECD18FEF90E7A2E081509040A040B2
:10085000E1F700C0000085990AC0CF5F8FEF91EEED
:10086000A4E081509040A040E1F700C000008499CE
:100870000AC0C1508FEF91EEA4E081509040A0409B
:10088000E1F700C00000C83108F0C02F00D000D050
:10089000EDB7FEB73196ADB7BEB71296FC92EE92A9
:1008A0001197C2831382E1D30F900F900F900F9096
:1008B0008399C5CF839BFECF00E00F2EFBEBEF2E7D
:1008C000F0E0FF2EF02D82E067E0A8D18FEF90E7F7
:1008D000A2E081509040A040E1F700C0000085995F
:1008E0000AC0DF5F8FEF91EEA4E081509040A040FE
:1008F000E1F700C0000084990AC0D1508FEF91EE5B
:10090000A4E081509040A040E1F700C00000DC333B
:1009100008F0D02F00D000D0EDB7FEB73196ADB7BC
:10092000BEB71296FC92EE921197D28313829DD39A
:100930000F900F900F900F908399C5CF839BFECFA0
:1009400000E00F2EFBEBEF2EF0E0FF2EF02D82E00B
:100950006CE064D18FEF90E7A2E081509040A0401E
:10096000E1F700C0000085990AC01F5F8FEF91EE8C
:10097000A4E081509040A040E1F700C000008499BD
:100980000AC011508FEF91EEA4E081509040A0403A
:10099000E1F700C000001C3308F0102F00D000D099
:1009A000EDB7FEB73196ADB7BEB71296FC92EE9298
:1009B00011971283138259D30F900F900F900F90BD
:1009C0008399C5CF839BFECF8C2FB3DD082F8D2F4E
:1009D000B0DDC82F812FADDD482F802F6C2F70D454
:1009E00057D18BED90E033D38FEF93EDA0E381509F
:1009F0009040A040E1F700C00000DF91CF911F912F
:100A00000F91FF90EF900895CF93DF9300D000D027
:100A100000D0CDB7DEB780EF81BB8FEF82BBBB9A32
:100A2000C39A84E062E040E138D100D088EE90E0E3
:100A3000ADB7BEB712969C938E93119716D38FEFD6
:100A400099E6A8E181509040A040E1F700C0000085
:100A50000F900F902BD48EE791E060E05EDB86E78D
:100A600091E061E05ADB8EE691E062E056DB86E6DB
:100A700091E063E052DB8EE591E064E04EDB86E5D9
:100A800091E065E04ADB8EE491E066E046DB86E4D7
:100A900091E067E042DB839918C0839BFECFB0DC16
:100AA00080938C01813051F0813018F0823061F4F4
:100AB0000AC08B816A8149817ADE06C08C816D8192
:100AC0004E8148DD01C02ADDE3D0CE010396BE0190
:100AD0006E5F7F4FAE014F5F5F4F1ED4CE01049615
:100AE000BE016B5F7F4FAE014A5F5F4F3AD48B818F
:100AF0006A8149812ADCCFCF009759F02FEF39E680
:100B000048E1215030404040E1F700C0000001972B
:100B1000A9F7089511B880E580B984E086BF0895EB
:100B200084EA86BF06B607FEFDCF089584E986BF36
:100B30008AE18A95F1F700C0089583B984E886BFF9
:100B400006B607FEFDCF08958295880F880F807C3A
:100B5000846886BF06B607FEFDCF83B10895982F3F
:100B600084FF02C0C49A01C0C49895FF02C0C59A10
:100B700001C0C59896FF02C0C69A01C0C6988823D6
:100B800014F4C79A0895C7980895BF98C098C19A59
:100B9000E3E9F1E0C2988AE18A95F1F700C0C29AD0
:100BA0009AE19A95F1F700C086B39081943051F4A0
:100BB000C2989AE19A95F1F700C0C29A9AE19A9583
:100BC000F1F700C0882334F3BF9A0895C098C19804
:100BD000C29A8AE18A95F1F700C0C2980895C09A36
:100BE000C198C29A8AE18A95F1F700C0C298089527
:100BF000CF93C82FCADF80919301883019F4C8BB06
:100C0000E5DF0AC0843041F48C2FA9DFDFDF8C2FB1
:100C10008295807FA4DFDADFCF91089590919101D2
:100C2000981778F090919201691758F460938F01AA
:100C300080939001E6E8F1E0E80FF11D8081860FD6
:100C4000D7DF0895809190018F5F8093900110927B
:100C50008F0190919101981718F481E08093900191
:100C600080919001E6E8F1E0E80FF11D8081C0DF9E
:100C7000089590919101981750F010928F018093F0
:100C80009001E6E8F1E0E80FF11D8081B1DF089501
:100C900081E0AEDF81E0EDDF08959FEF97BB97BB6A
:100CA000809393014093920160939101633040F0EF
:100CB0004F70842F805780938901405340938A015D
:100CC0008FEF90E7A2E081509040A040E1F700C094
:100CD000000080919301883019F488E389DF2BC0EC
:100CE000843049F580E33BDF71DF8FEF90E7A2E0CE
:100CF00081509040A040E1F700C0000080E32FDF6A
:100D000065DFAFE8B1E01197F1F700C0000080E3C4
:100D100026DF5CDF8FE891E00197F1F700C000006B
:100D200080E21DDF53DFAFE8B1E01197F1F700C0BB
:100D3000000088E25DDF8FE05BDFAADF0895CF93DC
:100D4000C82F23DF80919301883019F4C8BB47DF97
:100D50000AC0843041F48C2F02DF41DF8C2F829552
:100D6000807FFDDE3CDFCF910895CF93C82F909117
:100D7000920180918F01891718F4CA3021F40BC0B9
:100D800061DFCA3049F08C2FDADF80918F018F5FED
:100D900080938F0101C056DFCF910895BF92CF920B
:100DA000DF92EF92FF920F931F93CF93DF936B012C
:100DB0007C01C42F442311F101E010E0D1E0BB24F9
:100DC0004C2F50E041505040C80102C0880F991F7D
:100DD0004A95E2F7AC01662757FD6095762F4C21C6
:100DE0005D216E217F218D2F411551056105710512
:100DF00009F48B2D805DB9DFC15011F7DF91CF91E0
:100E00001F910F91FF90EF90DF90CF90BF900895CA
:100E10001F93CF93DF93CDB7DEB72A970FB6F89421
:100E2000DEBF0FBECDBFDC01CB010097A105B10530
:100E300019F0442369F435C0442399F1FE01319639
:100E400010E011921F5F141701F11A30D1F71DC085
:100E5000FE01319610E00097A105B10561F0282F41
:100E60002F702083689413F8B695A795979587956A
:100E70001694D1F703C04B3030F410821F5F3196C7
:100E8000141749F702C0112361F0FE01E10FF11DB3
:100E900080818A3010F0895C01C0805D66DF11506E
:100EA000A1F72A960FB6F894DEBF0FBECDBFDF9133
:100EB000CF911F9108958F929F92AF92BF92EF9220
:100EC000FF920F931F93CF93DF93CDB7DEB72A978F
:100ED0000FB6F894DEBF0FBECDBFDC01CB01042FEF
:100EE0000097A105B10519F0442371F441C04423D2
:100EF00009F43EC0FE01319610E011921F5F1017F9
:100F000079F11A30D1F72CC07E010894E11CF11C54
:100F100010E00F2EFAE08F2EF0E09F2EF0E0AF2EC3
:100F2000F0E0BF2EF02D0097A105B10561F0BC01E6
:100F3000CD01A5019401D8D2F7016083822F932FB0
:100F4000A42FB52F04C00B3048F4F70110821F5FA7
:100F50000894E11CF11C101731F702C0112341F075
:100F6000FE01E10FF11D8081805DFFDE1150C1F7B0
:100F70002A960FB6F894DEBF0FBECDBFDF91CF919A
:100F80001F910F91FF90EF90BF90AF909F908F9027
:100F90000895AF92BF92CF92DF92EF92FF920F939C
:100FA0001F93CF93DF93B82E6B01809191018B1526
:100FB00010F4BB24B3948CE01BDED6018C91882303
:100FC000B9F1D0E002E911E0AA248B2D52DEF8013C
:100FD00080818823E9F0ED2EFF24F601EE0DFF1D40
:100FE0008081882391F1CA2D7F01BFDECF5FD801B8
:100FF0008C91C81768F4F701EC0FF11D80818823EC
:10100000A1F780E2B2DECF5FF8018081C817C8F394
:101010008FE39DE0A3E081509040A040E1F700C045
:101020000000DF5FF601ED0FF11D8081882369F676
:101030008EE0DEDDDF91CF911F910F91FF90EF9059
:10104000DF90CF90BF90AF900895CA2DDACFCF93A5
:10105000DF93EC018881882329F0219686DE89912F
:101060008823E1F7DF91CF9108955F926F927F928D
:101070008F929F92AF92BF92CF92DF92EF92FF92A8
:101080000F931F93CF93DF93CDB7DEB70F2EF2E10F
:10109000CF2EDD24F02DCC0EDD1ED601ED91FD917D
:1010A0006D018081882309F4F1C08F015524689473
:1010B00054F899249A948824853209F0DBC05801A9
:1010C0000894A11CB11CF8018181982F90539A308B
:1010D00080F43296182D110F912F990F990F190F37
:1010E0008053180F5F018191982F90539A3098F395
:1010F00001C0192D90E085978435910508F0BCC09A
:10110000835E9F4F8F939F93089586010E5F1F4FBD
:10111000D6018C912ADE6801AFC0EE24FF246894CA
:10112000E1F8EC0CFD1CF601C080D180DD2034F428
:10113000D094C194D108D3948DE217DEB6018827EC
:1011400077FD8095982F412FB6DE670195C0662404
:101150007724689462F86C0C7D1CD601CD90DD90EC
:10116000ED90FC901397FF2054F4F094E094D09409
:10117000C094C11CD11CE11CF11C8DE2F6DDC7013D
:10118000B601412F98DE630177C0EE24FF246894F6
:10119000E1F8EC0CFD1CF60180819181BC0180E03E
:1011A00090E0412F88DE670167C0EE24FF24689439
:1011B000E2F8EC0CFD1CD6016D917D918D919C9116
:1011C000412F79DE670158C0EE24FF246894E1F8CE
:1011D000EC0CFD1CF60180819181BC0180E090E067
:1011E000412F16DE670148C0EE24FF246894E2F820
:1011F000EC0CFD1CD6016D917D918D919C91412F40
:1012000007DE670139C0EE24FF246894E1F8EC0C96
:10121000FD1CF601808191811F3F09F4152DBC0151
:1012200080E090E0412FBADD670126C0EE24FF2464
:101230006894E2F8EC0CFD1CD6016D917D918D91C6
:101240009C9113971F3F09F4152D412FA7DD6701CE
:1012500013C0E4E0F0E0CE0EDF1E0EC0F60182E027
:1012600090E0C80ED91E80819181F1DE05C085E233
:101270007CDD02C07ADD580185010F5F1F4FD5016B
:1012800011968C911197882309F016CFDF91CF9199
:101290001F910F91FF90EF90DF90CF90BF90AF9094
:1012A0009F908F907F906F905F90089533DC38DC33
:1012B00080ED43DC87E041DC80E03FDC37DC0895F3
:1012C0001F93CF93DF93C82FD62F142F29DC80EDE7
:1012D00034DC80E032DC812F30DC8D2F2EDC8C2F53
:1012E0002CDC24DCDF91CF911F9108951F93CF93C5
:1012F000DF93182FD62FC42F13DC80ED1EDC84E083
:101300001CDC812F1ADC8D2F18DC8C2F16DC0EDCF8
:10131000DF91CF911F910895EF92FF920F931F934A
:10132000CF93DF937C018B01EA01FADB80ED05DCD2
:1013300080E003DCFBDBF4DB81EDFFDB81E004DC40
:10134000888381E001DCF801808380E0FDDBF70128
:101350008083ECDBDF91CF911F910F91FF90EF9095
:101360000895EF92FF920F931F93CF93DF93EC01B9
:101370008B017A01D5DB80EDE0DB84E0DEDBD6DBC0
:10138000CFDB81EDDADB81E0DFDB888381E0DCDB52
:10139000F801808380E0D8DBF7018083C7DBDF9131
:1013A000CF911F910F91FF90EF90089570D088F02A
:1013B0009F5790F0B92F9927B751A0F0D1F0660F41
:1013C000771F881F991F1AF0BA95C9F712C0B1305C
:1013D00081F077D0B1E0089574C0672F782F882707
:1013E000B85F39F0B93FCCF3869577956795B3959B
:1013F000D9F73EF490958095709561957F4F8F4F0A
:101400009F4F0895E89409C097FB3EF4909580950E
:10141000709561957F4F8F4F9F4F9923A9F0F92FBA
:1014200096E9BB279395F695879577956795B79538
:10143000F111F8CFFAF4BB0F11F460FF1BC06F5F1E
:101440007F4F8F4F9F4F16C0882311F096E911C030
:10145000772321F09EE8872F762F05C0662371F051
:1014600096E8862F70E060E02AF09A95660F771F65
:10147000881FDAF7880F9695879597F9089557FD95
:101480009058440F551F59F05F3F71F04795880FF2
:1014900097FB991F61F09F3F79F087950895121689
:1014A00013061406551FF2CF4695F1DF08C0161635
:1014B00017061806991FF1CF8695710561050894E6
:1014C0000895E894BB2766277727CB0197F90895FD
:1014D000991B79E004C0991F961708F0961B881F86
:1014E0007A95C9F780950895A1E21A2EAA1BBB1B15
:1014F000FD010DC0AA1FBB1FEE1FFF1FA217B307E0
:10150000E407F50720F0A21BB30BE40BF50B661FF5
:10151000771F881F991F1A9469F7609570958095B9
:1015200090959B01AC01BD01CF010895F894FFCFC8
:10153000253278002020202053657474696E67730B
:1015400020202020002020202020202020202020BB
:101550002020202020003C25733E005475726E2010
:10156000416C61726D204F4E0020444420202020A9
:101570004D4D2020205959003C2532643E20203C0E
:101580002532643E203C2532643E0025326400440E
:10159000617465205570646174656400486F75728C
:1015A00020204D696E20207365630054696D6520AD
:1015B00055706461746564004578706C6F72652065
:1015C00054696D65210054696D65000000000000DC
:1015D000000000000000446174650000000000008D
:1015E000000000000000416C61726D00000000000E
:1015F000000000000000446973706C61792053742E
:10160000796C6500000054696D6520466F726D61EC
:101610007400000000001F000000001F1F1F1F1F9C
:101620001F0000001F1F1F1F1F1F1F1F1E1C000069
:101630000000001F1F1F1F1F1F1F1F1F0F071C1E43
:101640001F1F1F1F1F1F1F1F1F0000000000070F6D
:0C1650001F1F1F1F1F1F8080C090D000B4
:00000001FF
