:1000000070C08AC089C088C087C086C085C084C0CF
:1000100083C082C081C080C07FC07EC07DC07CC0E4
:100020007BC07AC079C09DC0B4C0CBC0E2C0F9C06B
:1000300010C127C13EC155C16CC117CC1BCC1ACC15
:1000400019CC18CC17CC16CC15CC14CC13CC12CCA4
:1000500011CC10CC0FCC0ECC0DCC0CCC0BCC0ACCD4
:1000600009CC08CC07CC06CC05CC04CC03CC02CC04
:1000700001CC00CCD9CB47CB68CBFCCBE8CBFACBBF
:10008000F9CBF8CBF7CBF6CBF5CBF4CBF3CBF2CB6C
:10009000F1CBF0CBEFCBE0CBEDCB85CBEBCBEACB11
:1000A000A1CBE8CBE7CBE6CBE5CBE4CBE3CBE2CB14
:1000B000E1CBE0CBA6CB27CB2ECBDCCBC8CBDACBAE
:1000C000D9CBD8CBD7CBD6CBD5CBD4CBD3CBD2CB2C
:1000D000D1CBD0CBCFCBC0CBCDCB55CBCBCBCACBE1
:1000E00071CB11241FBECFE5D4E0DEBFCDBF12E03F
:1000F000A0E6B0E0E8E0FAE102C005900D92A63576
:10010000B107D9F712E0A6E5B2E001C01D92AF3504
:10011000B107E1F75FD776CC73CF0F931F93CF93DF
:10012000DF93082F192F862F880F880F880F805C88
:100130005DD8C02FD12F18E0899190E0FED81150E2
:10014000D9F7DF91CF911F910F910895CF93C62FCB
:10015000E82FF0E0EA30F10508F0F2C0ED5EFF4F65
:10016000099481E059D880E090E0E7D881E090E000
:10017000E4D882E090E0E1D882E06C2F4DD883E0B3
:1001800090E0DBD884E090E0D8D885E090E0D5D846
:10019000D7C081E041D881E090E0CFD882E090E004
:1001A000CCD880E290E0C9D882E06C2F35D880E2CC
:1001B00090E0C3D88FEF90E0C0D880E290E0BDD847
:1001C000BFC081E029D886E090E0B7D886E090E013
:1001D000B4D882E090E0B1D882E06C2F1DD883E0E3
:1001E00090E0ABD887E090E0A8D887E090E0A5D871
:1001F000A7C081E011D886E090E09FD886E090E02B
:100200009CD882E090E099D882E06C2F05D887E0F6
:1002100090E093D887E090E090D885E090E08DD88A
:100220008FC081E0F9D783E090E087D884E090E048
:1002300084D882E090E081D882E06C2FEDD780E214
:1002400090E07BD880E290E078D88FEF90E075D88E
:1002500077C081E0E1D78FEF90E06FD886E090E043
:100260006CD886E090E069D882E06C2FD5D787E023
:1002700090E063D887E090E060D885E090E05DD8BA
:100280005FC081E0C9D788E090E057D886E090E071
:1002900054D886E090E051D882E06C2FBDD783E03F
:1002A00090E04BD887E090E048D885E090E045D8D2
:1002B00047C081E0B1D781E090E03FD881E090E095
:1002C0003CD882E090E039D882E06C2FA5D780E25C
:1002D00090E033D888E090E030D880E290E02DD8EC
:1002E0002FC081E099D780E090E027D886E090E0A9
:1002F00024D882E090E021D882E06C2F8DD783E073
:1003000090E01BD887E090E018D885E090E015D801
:1003100017C081E081D788E090E00FD886E090E0B8
:100320000CD882E090E009D882E06C2F75D780E28B
:1003300090E003D880E290E000D88FEF90E0FDD706
:10034000CF910895AF92BF92CF92DF92EF92FF923A
:100350000F931F93CF93DF9399D781E088D780E6DF
:1003600090E073D9C0E0D0E00F2EF1E7CF2EF0E09F
:10037000DF2EF02D0F2EFEE0EF2EFF24F02D0F2E9E
:10038000F2E8AF2EF0E0BF2EF02D829B63C085997E
:100390000AC0CF5F8FEF90E7A2E081509040A0406D
:1003A000E1F700C0000084990AC0C1508FEF90E7C8
:1003B000A2E081509040A040E1F700C000008C2FE7
:1003C0008C5F893020F4CC231CF4CB5F01C0CD2F8F
:1003D00082E04DD7C60139D90C2F112707FD1095A2
:1003E00002951295107F1027007F102700541E4F92
:1003F000A02FB12FFD0101900020E9F73197EA1BF2
:10040000FB0BB7016E1B7F0B7695679582E004D7D7
:1004100000D000D0ADB7BEB71296BC92AE92119785
:1004200014961C930E9313971ED98FEF90E7A2E0BA
:1004300081509040A040E1F700C000000F900F9065
:100440000F900F908399A1CF829B06C08399FCCF18
:100450008C2F03C08FEF01C08FEFDF91CF911F91E1
:100460000F91FF90EF90DF90CF90BF90AF900895E5
:100470000F931F93CF93DF9300D00F92CDB7DEB7CA
:10048000CE010196BE016E5F7F4FAE014D5F5F4FA3
:1004900041DA21E0909157028981981320E081E0B0
:1004A000309159029A81391380E0282330E081E0AD
:1004B00090E0509156024B81541711F080E090E08B
:1004C00082239323009789F0E1D607E810E081E0CA
:1004D000CED600D0EDB7FEB712830183C4D80F90FB
:1004E0000F908299F4CFC398D1D60F900F900F90B0
:1004F000DF91CF911F910F9108950F931F93CF9389
:10050000DF93C4D681E0B3D600D082EA90E0ADB7E5
:10051000BEB712969C938E931197A5D80F900F900B
:10052000C2ECD0E002EB10E082E0A1D68FEF90E7C2
:10053000A2E081509040A040E1F700C00000829B03
:1005400057C085990EC0809158028F5F80935802E2
:100550008FEF91EEA4E081509040A040E1F700C001
:10056000000084990EC080915802815080935802F7
:100570008FEF91EEA4E081509040A040E1F700C0E1
:10058000000080915802823018F0109258020DC07D
:10059000813059F400D0ADB7BEB712961C930E93BC
:1005A000119761D80F900F9008C000D0EDB7FEB73B
:1005B000D283C18358D80F900F908399B5CF829B77
:1005C00017C08399FCCF00D081ED90E0ADB7BEB7E6
:1005D00012969C938E93119746D88FEF93EDA0E3DC
:1005E00081509040A040E1F700C000000F900F90B4
:1005F000DF91CF911F910F9108950F931F93CF9388
:10060000DF9344D681E033D600D087EE90E0ADB7DB
:10061000BEB712969C938E93119725D80F900F908A
:10062000C9E0D1E008EF10E082E021D68FEF90E73B
:10063000A2E081509040A040E1F700C00000829B02
:1006400057C085990EC08091BF018F5F8093BF0115
:100650008FEF91EEA4E081509040A040E1F700C000
:10066000000084990EC08091BF0181508093BF012A
:100670008FEF91EEA4E081509040A040E1F700C0E0
:1006800000008091BF01823018F01092BF010DC0B0
:10069000813059F400D0ADB7BEB712961C930E93BB
:1006A0001197E1D70F900F9008C000D0EDB7FEB7BB
:1006B000D283C183D8D70F900F908399B5CF829BF7
:1006C00017C08399FCCF00D08AE191E0ADB7BEB7E7
:1006D00012969C938E931197C6D78FEF93EDA0E35C
:1006E00081509040A040E1F700C000000F900F90B3
:1006F000DF91CF911F910F9108956AE055D98295AE
:10070000807F890F0895982F92959F70990F292FB8
:10071000220F220F920F8F70890F0895EF92FF9290
:100720000F931F93CF93DF9380915702ECDFC82F75
:1007300080915902E8DFD82F80915602E4DFF82E2D
:10074000A5D581E094D500D08EE291E0ADB7BEB7DB
:1007500012969C938E93119786D70F900F9082E0FC
:1007600086D5EDB7FEB738970FB6F894FEBF0FBE2B
:10077000EDBF31968DE391E0ADB7BEB712969C9375
:100780008E931197C2831382D4831582F6821782C7
:100790006AD7EDB7FEB738960FB6F894FEBF0FBE16
:1007A000EDBFEE2400E511E082E061E035D58FEF8A
:1007B00090E7A2E081509040A040E1F700C0000027
:1007C000829BD5C085990AC0CF5F8FEF91EEA4E0E0
:1007D00081509040A040E1F700C0000084990AC019
:1007E000C1508FEF91EEA4E081509040A040E1F71E
:1007F00000C00000C83108F0CE2D00D000D0EDB709
:10080000FEB73196ADB7BEB712961C930E931197F3
:10081000C283138228D70F900F900F900F90839967
:10082000C3CF829BA4C08399FCCFEE2400E511E0E6
:1008300082E067E0F1D48FEF90E7A2E08150904032
:10084000A040E1F700C00000829B91C085990AC0DA
:10085000DF5F8FEF91EEA4E081509040A040E1F780
:1008600000C0000084990AC0D1508FEF91EEA4E03F
:1008700081509040A040E1F700C00000DC3308F058
:10088000DE2D00D000D0EDB7FEB73196ADB7BEB7C4
:1008900012961C930E931197D2831382E4D60F9075
:1008A0000F900F900F908399C3CF829B60C0839964
:1008B000FCCFEE2400E511E082E06CE0ADD48FEFD8
:1008C00090E7A2E081509040A040E1F700C0000016
:1008D000829B4DC085990AC0F3948FEF91EEA4E0FE
:1008E00081509040A040E1F700C0000084990AC008
:1008F000FA948FEF91EEA4E081509040A040E1F790
:1009000000C000009BE39F1508F4FE2C00D000D02F
:10091000EDB7FEB73196ADB7BEB712961C930E93E6
:100920001197F28213829FD60F900F900F900F9025
:100930008399C2CF829B1BC08399FCCF8C2FDDDEB5
:10094000809357028D2FD9DE809359028F2DD5DEEB
:10095000809356029BD484E591E077D68FEF93ED98
:10096000A0E381509040A040E1F700C00000DF917B
:10097000CF911F910F91FF90EF900895EF92FF920A
:100980000F931F93CF93DF93D62F042FBCDEC82F76
:100990008D2FB9DED82F802FB6DEF82E77D481E0E8
:1009A00066D400D08EE591E0ADB7BEB712969C93A9
:1009B0008E93119758D60F900F9082E058D4EDB7D0
:1009C000FEB738970FB6F894FEBF0FBEEDBF319655
:1009D0008DE391E0ADB7BEB712969C938E931197BD
:1009E000C2831382D4831582F68217823CD6EDB778
:1009F000FEB738960FB6F894FEBF0FBEEDBFEE24DB
:100A000000E511E082E061E007D48FEF90E7A2E01B
:100A100081509040A040E1F700C00000829BD5C00B
:100A200085990AC0CF5F8FEF91EEA4E0815090408E
:100A3000A040E1F700C0000084990AC0C1508FEFC8
:100A400091EEA4E081509040A040E1F700C000008A
:100A5000C03208F0CE2D00D000D0EDB7FEB73196F1
:100A6000ADB7BEB712961C930E931197C283138233
:100A7000FAD50F900F900F900F908399C3CF829B60
:100A8000A4C08399FCCFEE2400E511E082E067E08A
:100A9000C3D38FEF90E7A2E081509040A040E1F7F0
:100AA00000C00000829B91C085990AC0DF5F8FEF74
:100AB00091EEA4E081509040A040E1F700C000001A
:100AC00084990AC0D1508FEF91EEA4E081509040FC
:100AD000A040E1F700C00000DD3008F0DE2D00D0BE
:100AE00000D0EDB7FEB73196ADB7BEB712961C93E6
:100AF0000E931197D2831382B6D50F900F900F905B
:100B00000F908399C3CF829B60C08399FCCFEE2462
:100B100000E511E082E06CE07FD38FEF90E7A2E088
:100B200081509040A040E1F700C00000829B4DC082
:100B300085990AC0F3948FEF91EEA4E08150904024
:100B4000A040E1F700C0000084990AC0FA948FEF3A
:100B500091EEA4E081509040A040E1F700C0000079
:100B600092E69F1508F4FE2C00D000D0EDB7FEB73A
:100B70003196ADB7BEB712961C930E931197F282C1
:100B8000138271D50F900F900F900F908399C2CF61
:100B9000829B1BC08399FCCF8C2FAFDD082F8D2F3C
:100BA000ACDDC82F8F2DA9DD482F802F6C2F9CD650
:100BB0006DD38DE691E049D58FEF93EDA0E38150A1
:100BC0009040A040E1F700C00000DF91CF911F915D
:100BD0000F91FF90EF900895EF92FF920F931F9364
:100BE000CF93DF93D62F042F8EDDC82F8D2F8BDD73
:100BF000D82F802F88DDF82E49D381E038D300D05C
:100C00008EE291E0ADB7BEB712969C938E9311978A
:100C10002AD50F900F9082E02AD3EDB7FEB7389710
:100C20000FB6F894FEBF0FBEEDBF31968DE391E095
:100C3000ADB7BEB712969C938E931197C283138261
:100C4000D4831582F68217820ED5EDB7FEB738969B
:100C50000FB6F894FEBF0FBEEDBFEE2400E511E025
:100C600082E061E0D9D28FEF90E7A2E0815090401E
:100C7000A040E1F700C00000829BD5C085990AC062
:100C8000CF5F8FEF91EEA4E081509040A040E1F75C
:100C900000C0000084990AC0C1508FEF91EEA4E01B
:100CA00081509040A040E1F700C00000C83108F03A
:100CB000CE2D00D000D0EDB7FEB73196ADB7BEB7A0
:100CC00012961C930E931197C2831382CCD40F906B
:100CD0000F900F900F908399C3CF829BA4C08399EC
:100CE000FCCFEE2400E511E082E067E095D28FEFC3
:100CF00090E7A2E081509040A040E1F700C00000E2
:100D0000829B91C085990AC0DF5F8FEF91EEA4E0CE
:100D100081509040A040E1F700C0000084990AC0D3
:100D2000D1508FEF91EEA4E081509040A040E1F7C8
:100D300000C00000DC3308F0DE2D00D000D0EDB79D
:100D4000FEB73196ADB7BEB712961C930E931197AE
:100D5000D283138288D40F900F900F900F908399B5
:100D6000C3CF829B60C08399FCCFEE2400E511E0E5
:100D700082E06CE051D28FEF90E7A2E0815090408A
:100D8000A040E1F700C00000829B4DC085990AC0D9
:100D9000F3948FEF91EEA4E081509040A040E1F7F2
:100DA00000C0000084990AC0FA948FEF91EEA4E08D
:100DB00081509040A040E1F700C000009BE39F15E8
:100DC00008F4FE2C00D000D0EDB7FEB73196ADB7D9
:100DD000BEB712961C930E931197F282138243D4DE
:100DE0000F900F900F900F908399C2CF829B1BC0E2
:100DF0008399FCCF8C2F81DC082F8D2F7EDCC82FB0
:100E00008F2D7BDC482F802F6C2F58D53FD28AE75F
:100E100091E01BD48FEF93EDA0E381509040A04070
:100E2000E1F700C00000DF91CF911F910F91FF907B
:100E3000EF9008951F93CF93DF93D82FC62F142FD1
:100E400080915802813071F582E011D28D2F5BDCE8
:100E5000D82F8C2F58DCC82F812F55DC2DB73EB7EB
:100E6000285030400FB6F8943EBF0FBE2DBFEDB7EF
:100E7000FEB7319627E831E0ADB7BEB712963C9386
:100E80002E931197D2831382C4831582868317828F
:100E9000EAD32DB73EB7285F3F4F0FB6F8943EBF59
:100EA0000FBE2DBFDF91CF911F9108950F931F9318
:100EB000CF93DF93162FD42F26DCC82F812F23DC6E
:100EC000082F8D2F20DC182F8091BF018130F9F47D
:100ED0006EE0A2D1CD3070F0CC5000D087E991E027
:100EE000ADB7BEB712969C938E931197BCD30F905B
:100EF0000F900DC0CC2309F4CCE000D08AE991E03A
:100F0000EDB7FEB792838183AED30F900F9080919F
:100F10005802813021F5ABD18DB79EB708970FB637
:100F2000F8949EBF0FBE8DBFEDB7FEB731968DE929
:100F300091E0ADB7BEB712969C938E931197C28382
:100F4000138204831582168317828DD3EDB7FEB703
:100F500038960FB6F894FEBF0FBEEDBF36C01AE04C
:100F60008C2F612F21D5C92F60E0F0D88C2F63E042
:100F7000EDD881E066E050D185EA90E0DED182E0F4
:100F800066E04AD185EA90E0D8D1802F612F0CD558
:100F9000C92F67E0DBD88C2F6AE0D8D882E06EE0FA
:100FA0003BD100D000D0EDB7FEB731968DEA91E08D
:100FB000ADB7BEB712969C938E931197D2831382CE
:100FC00052D30F900F900F900F90DF91CF911F9100
:100FD0000F910895CF93DF9300D000D000D0CDB70C
:100FE000DEB780EF81BB8FEF82BBBB9AC39A84E0F0
:100FF00062E040E150D100D081EB91E0ADB7BEB7E7
:1010000012969C938E9311972ED38FEF90E7A2E0C8
:1010100081509040A040E1F700C000000F900F9079
:1010200043D488E492E060E078D880E492E061E024
:1010300074D888E392E062E070D880E392E063E0E5
:101040006CD888E292E064E068D880E292E065E0E3
:1010500064D888E192E066E060D880E192E067E0E1
:101060005CD883E260E440E229D484E161E142E1BA
:101070003BD4839923C0839BFECF64D98230B1F0E7
:10108000833028F4882341F08130A9F40AC08330EA
:1010900079F0843081F40EC08B816A8149819CDDB6
:1010A0000AC08C816D814E8169DC05C037DB03C0CD
:1010B00024DA01C0A2DA8299E0CFE8D0CE0103960B
:1010C000BE016E5F7F4FAE014F5F5F4F23D4CE01F5
:1010D0000496BE016B5F7F4FAE014A5F5F4F3FD406
:1010E0008B816A814981E2DE8C816D814E81A2DE35
:1010F000BFD9BFCF009759F02FEF39E648E1215013
:1011000030404040E1F700C000000197A9F7089582
:1011100011B880E580B984E086BF089584EA86BF6F
:1011200006B607FEFDCF089584E986BF8AE18A9559
:10113000F1F700C0089583B984E886BF06B607FEBC
:10114000FDCF08958295880F880F807C846886BFC4
:1011500006B607FEFDCF83B10895982F84FF02C025
:10116000C49A01C0C49895FF02C0C59A01C0C59831
:1011700096FF02C0C69A01C0C698882314F4C79A85
:101180000895C7980895BF98C098C19AEEE5F2E017
:10119000C2988AE18A95F1F700C0C29A9AE19A95BD
:1011A000F1F700C086B39081943051F4C2989AE16F
:1011B0009A95F1F700C0C29A9AE19A95F1F700C0AA
:1011C000882334F3BF9A0895C098C198C29A8AE1DF
:1011D0008A95F1F700C0C2980895C09AC198C29A42
:1011E0008AE18A95F1F700C0C2980895CF93C82F7D
:1011F000CADF80915E02883019F4C8BBE5DF0AC0FF
:10120000843041F48C2FA9DFDFDF8C2F8295807F23
:10121000A4DFDADFCF91089590915C02981778F0FF
:1012200090915D02691758F460935A0280935B02B3
:10123000E0E5F2E0E80FF11D8081860FD7DF089529
:1012400080915B028F5F80935B0210925A029091B3
:101250005C02981718F481E080935B0280915B0236
:10126000E0E5F2E0E80FF11D8081C0DF0895909184
:101270005C02981750F010925A0280935B02E0E5EE
:10128000F2E0E80FF11D8081B1DF089581E0AEDF6B
:1012900081E0EDDF08959FEF97BB97BB80935E02DF
:1012A00040935D0260935C02633040F04F70842F86
:1012B0008057809353024053409354028FEF90E73E
:1012C000A2E081509040A040E1F700C00000809172
:1012D0005E02883019F488E389DF2BC0843049F539
:1012E00080E33BDF71DF8FEF90E7A2E08150904019
:1012F000A040E1F700C0000080E32FDF65DFAFE82A
:10130000B1E01197F1F700C0000080E326DF5CDF59
:101310008FE891E00197F1F700C0000080E21DDF47
:1013200053DFAFE8B1E01197F1F700C0000088E2A9
:101330005DDF8FE05BDFAADF0895CF93C82F23DF47
:1013400080915E02883019F4C8BB47DF0AC0843040
:1013500041F48C2F02DF41DF8C2F8295807FFDDEF0
:101360003CDFCF910895CF93C82F90915D0280917B
:101370005A02891718F4CA3021F40BC061DFCA3051
:1013800049F08C2FDADF80915A028F5F80935A02E6
:1013900001C056DFCF910895BF92CF92DF92EF92B6
:1013A000FF920F931F93CF93DF936B017C01C42FA8
:1013B000442311F101E010E0D1E0BB244C2F50E0B8
:1013C00041505040C80102C0880F991F4A95E2F76A
:1013D000AC01662757FD6095762F4C215D216E216B
:1013E0007F218D2F411551056105710509F48B2D64
:1013F000805DB9DFC15011F7DF91CF911F910F913F
:10140000FF90EF90DF90CF90BF9008951F93CF9300
:10141000DF93CDB7DEB72A970FB6F894DEBF0FBEC5
:10142000CDBFDC01CB010097A105B10519F0442324
:1014300069F435C0442399F1FE01319610E0119210
:101440001F5F141701F11A30D1F71DC0FE0131964C
:1014500010E00097A105B10561F0282F2F702083BF
:10146000689413F8B695A795979587951694D1F734
:1014700003C04B3030F410821F5F3196141749F7C8
:1014800002C0112361F0FE01E10FF11D80818A305D
:1014900010F0895C01C0805D66DF1150A1F72A96CB
:1014A0000FB6F894DEBF0FBECDBFDF91CF911F9175
:1014B00008958F929F92AF92BF92EF92FF920F93F7
:1014C0001F93CF93DF93CDB7DEB72A970FB6F8946B
:1014D000DEBF0FBECDBFDC01CB01042F0097A105FD
:1014E000B10519F0442371F441C0442309F43EC00E
:1014F000FE01319610E011921F5F101779F11A303A
:10150000D1F72CC07E010894E11CF11C10E00F2ED5
:10151000FAE08F2EF0E09F2EF0E0AF2EF0E0BF2E2D
:10152000F02D0097A105B10561F0BC01CD01A50129
:10153000940146D2F7016083822F932FA42FB52FF9
:1015400004C00B3048F4F70110821F5F0894E11CBF
:10155000F11C101731F702C0112341F0FE01E10F19
:10156000F11D8081805DFFDE1150C1F72A960FB614
:10157000F894DEBF0FBECDBFDF91CF911F910F91C9
:10158000FF90EF90BF90AF909F908F900895AF9293
:10159000BF92CF92DF92EF92FF920F931F93CF9360
:1015A000DF93B82E6B0180915C028B1510F4BB2485
:1015B000B3948CE01BDED6018C918823B9F1D0E086
:1015C0000DE512E0AA248B2D52DEF80180818823DC
:1015D000E9F0ED2EFF24F601EE0DFF1D808188233A
:1015E00091F1CA2D7F01BFDECF5FD8018C91C81762
:1015F00068F4F701EC0FF11D80818823A1F780E2E8
:10160000B2DECF5FF8018081C817C8F38FE39DE099
:10161000A3E081509040A040E1F700C00000DF5FF0
:10162000F601ED0FF11D8081882369F68EE0DEDD85
:10163000DF91CF911F910F91FF90EF90DF90CF90AE
:10164000BF90AF900895CA2DDACFCF93DF93EC010E
:101650008881882329F0219686DE89918823E1F705
:10166000DF91CF9108955F926F927F928F929F92B8
:10167000AF92BF92CF92DF92EF92FF920F931F93A0
:10168000CF93DF93CDB7DEB70F2EF2E1CF2EDD245F
:10169000F02DCC0EDD1ED601ED91FD916D01808106
:1016A000882309F4F1C08F015524689454F89924D3
:1016B0009A948824853209F0DBC058010894A11C53
:1016C000B11CF8018181982F90539A3080F43296A2
:1016D000182D110F912F990F990F190F8053180F73
:1016E0005F018191982F90539A3098F301C0192D82
:1016F00090E085978435910508F0BCC0835E9F4FCC
:101700008F939F93089586010E5F1F4FD6018C9192
:101710002ADE6801AFC0EE24FF246894E1F8EC0CE7
:10172000FD1CF601C080D180DD2034F4D094C1943A
:10173000D108D3948DE217DEB601882777FD809516
:10174000982F412FB6DE670195C0662477246894F0
:1017500062F86C0C7D1CD601CD90DD90ED90FC9074
:101760001397FF2054F4F094E094D094C094C11CDB
:10177000D11CE11CF11C8DE2F6DDC701B601412F41
:1017800098DE630177C0EE24FF246894E1F8EC0C46
:10179000FD1CF60180819181BC0180E090E0412F29
:1017A00088DE670167C0EE24FF246894E2F8EC0C41
:1017B000FD1CD6016D917D918D919C91412F79DE1B
:1017C000670158C0EE24FF246894E1F8EC0CFD1C7E
:1017D000F60180819181BC0180E090E0412F16DE0E
:1017E000670148C0EE24FF246894E2F8EC0CFD1C6D
:1017F000D6016D917D918D919C91412F07DE6701FE
:1018000039C0EE24FF246894E1F8EC0CFD1CF601CD
:10181000808191811F3F09F4152DBC0180E090E08B
:10182000412FBADD670126C0EE24FF246894E2F858
:10183000EC0CFD1CD6016D917D918D919C911397BF
:101840001F3F09F4152D412FA7DD670113C0E4E008
:10185000F0E0CE0EDF1E0EC0F60182E090E0C80E72
:10186000D91E80819181F1DE05C085E27CDD02C058
:101870007ADD580185010F5F1F4FD50111968C91BC
:101880001197882309F016CFDF91CF911F910F9107
:10189000FF90EF90DF90CF90BF90AF909F908F9090
:1018A0007F906F905F90089533DC38DC80ED43DCEF
:1018B00087E041DC80E03FDC37DC08951F93CF9365
:1018C000DF93C82FD62F142F29DC80ED34DC80E085
:1018D00032DC812F30DC8D2F2EDC8C2F2CDC24DCB5
:1018E000DF91CF911F9108951F93CF93DF93182F0E
:1018F000D62FC42F13DC80ED1EDC84E01CDC812F8E
:101900001ADC8D2F18DC8C2F16DC0EDCDF91CF91CA
:101910001F910895EF92FF920F931F93CF93DF9340
:101920007C018B01EA01FADB80ED05DC80E003DC61
:10193000FBDBF4DB81EDFFDB81E004DC888381E00D
:1019400001DCF801808380E0FDDBF7018083ECDBC4
:10195000DF91CF911F910F91FF90EF900895EF923B
:10196000FF920F931F93CF93DF93EC018B017A01CA
:10197000D5DB80EDE0DB84E0DEDBD6DBCFDB81EDA9
:10198000DADB81E0DFDB888381E0DCDBF801808368
:1019900080E0D8DBF7018083C7DBDF91CF911F9117
:1019A0000F91FF90EF900895991B79E004C0991F63
:1019B000961708F0961B881F7A95C9F780950895A9
:1019C000A1E21A2EAA1BBB1BFD010DC0AA1FBB1F43
:1019D000EE1FFF1FA217B307E407F50720F0A21BB5
:1019E000B30BE40BF50B661F771F881F991F1A9422
:1019F00069F760957095809590959B01AC01BD014C
:081A0000CF010895F894FFCF17
:101A08002020202053657474696E6773202020207D
:101A180000202020202020202020202020202020DE
:101A280020003C25733E0050726573732043616E3D
:101A380063656C20746F2053746F7020416C617201
:101A48006D0020446973706C61792D5374796C65ED
:101A5800200020203C54696D65202B20446174656A
:101A68003E002020203C4F6E6C792054696D653E05
:101A780000446973706C6179205374796C652055E2
:101A880070646174656400202054696D6520466F38
:101A9800726D6174202020002020203C31322048C3
:101AA8006F7572733E202020002020203C323420A5
:101AB800486F7572733E2020200054696D6520467A
:101AC8006F726D6174205570646174656400486F4D
:101AD800757220204D696E2020536563003C2532C5
:101AE800643E20203C2532643E203C2532643E0082
:101AF80025326400416C61726D2053657400204486
:101B080044202020204D4D20202059590044617444
:101B18006520557064617465640054696D6520556D
:101B280070646174656400202020202532642F25AC
:101B380032642F25326400504D00414D0020202092
:101B4800202532643A2532643A25326400253278F9
:101B5800004578706C6F72652054696D65210001CD
:101B680054696D65000000000000000000000000DE
:101B780044617465000000000000000000000000DF
:101B8800416C61726D000000000000000000000060
:101B9800446973706C6179205374796C6500000036
:101BA80054696D6520466F726D6174000000000015
:101BB8001F000000001F1F1F1F1F1F0000001F1F06
:101BC8001F1F1F1F1F1F1E1C00000000001F1F1FBC
:101BD8001F1F1F1F1F1F0F071C1E1F1F1F1F1F1F39
:101BE8001F1F1F0000000000070F1F1F1F1F1F1FC0
:061BF8008080C090D000C7
:00000001FF
