:1000000070C08AC089C088C087C086C085C084C0CF
:1000100083C082C081C080C07FC07EC07DC07CC0E4
:100020007BC07AC079C0ABC0C2C0D9C0F0C007C124
:100030001EC135C14CC163C17AC1D1C7D5C7D4C7B0
:10004000D3C7D2C7D1C7D0C7CFC7CEC7CDC7CCC7FC
:10005000CBC7CAC7C9C7C8C7C7C7C6C7C5C7C4C72C
:10006000C3C7C2C7C1C7C0C7BFC7BEC7BDC7BCC75C
:10007000BBC7BAC793C701C722C7B6C7A2C7B4C711
:10008000B3C7B2C7B1C7B0C7AFC7AEC7ADC7ACC7BC
:10009000ABC7AAC7A9C79AC7A7C73FC7A5C7A4C761
:1000A0005BC7A2C7A1C7A0C79FC79EC79DC79CC764
:1000B0009BC79AC760C7E1C6E8C696C782C794C700
:1000C00093C792C791C790C78FC78EC78DC78CC77C
:1000D0008BC78AC789C77AC787C70FC785C784C731
:1000E0002BC711241FBECFE5D4E0DEBFCDBF11E08A
:1000F000A0E6B0E0E6ECF2E102C005900D92A23F6E
:10010000B107D9F711E0A2EFB1E001C01D92A83FFD
:10011000B107E1F77ED3D5C873CF009759F02FEF21
:1001200039E648E1215030404040E1F700C000008E
:100130000197A9F708950F931F93CF93DF93082F8B
:10014000192F862F880F880F880F805C09D4C02F45
:10015000D12F18E0899190E0AAD41150D9F7DF91FE
:10016000CF911F910F910895CF93C62FE82FF0E004
:10017000EA30F10508F0F2C0ED5EFF4F099481E02E
:1001800005D480E090E093D481E090E090D482E0C8
:1001900090E08DD482E06C2FF9D383E090E087D497
:1001A00084E090E084D485E090E081D4D7C081E001
:1001B000EDD380E290E07BD480E290E078D48FEFC2
:1001C00090E075D482E06C2FE1D380E290E06FD4B0
:1001D00080E290E06CD48FEF90E069D4BFC081E002
:1001E000D5D386E090E063D486E090E060D482E0EE
:1001F00090E05DD482E06C2FC9D383E090E057D4C7
:1002000087E090E054D487E090E051D4A7C081E02B
:10021000BDD386E090E04BD486E090E048D482E005
:1002200090E045D482E06C2FB1D387E090E03FD4DA
:1002300087E090E03CD485E090E039D48FC081E045
:10024000A5D383E090E033D484E090E030D482E022
:1002500090E02DD482E06C2F99D380E290E027D4F7
:1002600080E290E024D48FEF90E021D477C081E049
:100270008DD38FEF90E01BD486E090E018D486E019
:1002800090E015D482E06C2F81D387E090E00FD40A
:1002900087E090E00CD485E090E009D45FC081E075
:1002A00075D388E090E003D486E090E000D486E047
:1002B00090E0FDD382E06C2F69D383E090E0F7D328
:1002C00087E090E0F4D385E090E0F1D347C081E08F
:1002D0005DD381E090E0EBD381E090E0E8D382E071
:1002E00090E0E5D382E06C2F51D380E290E0DFD341
:1002F00088E090E0DCD380E290E0D9D32FC081E0A9
:1003000045D380E090E0D3D386E090E0D0D382E084
:1003100090E0CDD382E06C2F39D383E090E0C7D357
:1003200087E090E0C4D385E090E0C1D317C081E0BE
:100330002DD388E090E0BBD386E090E0B8D382E094
:1003400090E0B5D382E06C2F21D380E290E0AFD370
:1003500080E290E0ACD38FEF90E0A9D3CF910895E5
:10036000AF92BF92CF92DF92EF92FF920F931F93C3
:10037000CF93DF9345D381E034D380E690E01FD55F
:10038000C0E0D0E00F2EF1E7CF2EF0E0DF2EF02D11
:100390000F2EFEE0EF2EFF24F02D0F2EF2E8AF2EF1
:1003A000F0E0BF2EF02D829B63C085990AC0CF5F1D
:1003B0008FEF90E7A2E081509040A040E1F700C0AD
:1003C000000084990AC0C1508FEF90E7A2E08150ED
:1003D0009040A040E1F700C000008C2F8F5F833079
:1003E00020F4CC231CF4CE5F01C0CD2F82E0F9D2E3
:1003F000C601E5D40C2F112707FD10950295129523
:10040000107F1027007F102704561E4FA02FB12FFA
:10041000FD0101900020E9F73197EA1BFB0BB701C2
:100420006E1B7F0B7695679582E0B0D200D000D02E
:10043000ADB7BEB71296BC92AE92119714961C93AC
:100440000E931397CAD48FEF90E7A2E081509040AB
:10045000A040E1F700C000000F900F900F900F90A8
:100460008399A1CF829B06C08399FCCF8C2F03C0B8
:100470008FEF01C08FEFDF91CF911F910F91FF9010
:10048000EF90DF90CF90BF90AF9008950F931F93A0
:10049000CF93DF93EC01B4D28091F201813001F56A
:1004A00000D000D000D0EDB7FEB7319687E890E0DD
:1004B000ADB7BEB712969C938E931197CE016AE0AA
:1004C00070E0C9D6738362839583848386D4EDB745
:1004D000FEB736960FB6F894FEBF0FBEEDBF24C030
:1004E000CE0168EE73E0B7D6862F60E03DDECE0128
:1004F00064E670E0B0D6CB010AE010E0B801ABD6FC
:1005000063E032DECE01B801A6D6C82FCB01B80118
:10051000A2D666E029DE82E069E038D285EA90E082
:10052000C6D28C2F6AE020DE81E06EE02FD280916F
:100530009B01813069F400D088E990E0ADB7BEB787
:1005400012969C938E93119748D40F900F900AC0E7
:1005500000D08BE990E0EDB7FEB7928381833DD464
:100560000F900F90DF91CF911F910F9108951DBCB7
:100570001CBC1FBCAA9A8DE08A95F1F70000AA98CE
:100580009B9BFECF85E08EBD9B99FECF1EBC9DB58B
:100590008CB5792F60E0680F711D882777FD8095F5
:1005A000982F6AD520919B01213079F4472F382F5D
:1005B000292F862F942FA32FB22FBC01CD012BE71B
:1005C00034E14EEA51E4BCD50EC0472F382F292F15
:1005D000862F942FA32FB22FBC01CD012FE632E13D
:1005E00049E051E4ADD5382F292F862F972FA32F1F
:1005F000B22FBC01CD0112D5862F972F08950F93EE
:100600001F93CF93DF93FCD181E0EBD100D08EE933
:1006100090E0ADB7BEB712969C938E931197DDD341
:100620000F900F9082E0DDD1CEEBD0E00EEA10E02B
:1006300082E061E0ABD18FEF90E7A2E08150904083
:10064000A040E1F700C00000829B59C085990EC010
:1006500080919B018F5F80939B018FEF91EEA4E0CF
:1006600081509040A040E1F700C0000084990EC086
:1006700080919B01815080939B018FEF91EEA4E0CC
:1006800081509040A040E1F700C0000080919B01A4
:10069000823018F010929B010DC0813059F400D0C7
:1006A000ADB7BEB712961C930E93119796D30F90C9
:1006B0000F9008C000D0EDB7FEB7D283C1838DD3B1
:1006C0000F900F908399B4CF829B19C08399FCCF70
:1006D00081E087D100D08BEC90E0ADB7BEB7129629
:1006E0009C938E93119779D38FEF99E6A8E181506F
:1006F0009040A040E1F700C000000F900F90DF9104
:10070000CF911F910F9108950F931F93CF93DF9374
:1007100077D181E066D100D08DEE90E0ADB7BEB765
:1007200012969C938E93119758D30F900F9082E05E
:1007300058D1CFE0D1E00EEF10E082E061E026D1A9
:100740008FEF90E7A2E081509040A040E1F700C019
:100750000000829B59C085990EC08091F2018F5F85
:100760008093F2018FEF91EEA4E081509040A04081
:10077000E1F700C0000084990EC08091F201815021
:100780008093F2018FEF91EEA4E081509040A04061
:10079000E1F700C000008091F201823018F0109261
:1007A000F2010DC0813059F400D0ADB7BEB712963A
:1007B0001C930E93119711D30F900F9008C000D087
:1007C000EDB7FEB7D283C18308D30F900F90839902
:1007D000B4CF829B19C08399FCCF81E002D100D0B5
:1007E0008FE191E0ADB7BEB712969C938E931197AF
:1007F000F4D28FEF99E6A8E181509040A040E1F754
:1008000000C000000F900F90DF91CF911F910F91CA
:10081000089580EF81BB8FEF82BBA29A84E062E0F3
:1008200040E1F3D000D081E491E0ADB7BEB71296BD
:100830009C938E931197D1D28FEF93EDA0E38150CB
:100840009040A040E1F700C000000F900F90D8D07A
:1008500083E991E060E06FDC8BE891E061E06BDCC4
:1008600083E891E062E067DC8BE791E063E063DCC2
:1008700083E791E064E05FDC8BE691E065E05BDCC0
:1008800083E691E066E057DC8BE591E067E053DCBE
:10089000839910C0839BFECF63DD882319F08130DC
:1008A00021F402C0ACDE01C02FDF8299F5CF82991E
:1008B000FECFA6D05CDE90E0E9DD8FE799EAA3E009
:1008C00081509040A040E1F700C00000E1CF982F98
:1008D00084FF02C0C49A01C0C49895FF02C0C59AA3
:1008E00001C0C59896FF02C0C69A01C0C698882369
:1008F00014F4C79A0895C7980895BF98C098C19AEC
:10090000E7EFF1E0C2988AE18A95F1F700C0C29A58
:100910009AE19A95F1F700C086B39081943051F432
:10092000C2989AE19A95F1F700C0C29A9AE19A9515
:10093000F1F700C0882334F3BF9A0895C098C19896
:10094000C29A8AE18A95F1F700C0C2980895C09AC8
:10095000C198C29A8AE18A95F1F700C0C2980895B9
:10096000CF93C82FCADF8091F701883019F4C8BB34
:10097000E5DF0AC0843041F48C2FA9DFDFDF8C2F44
:100980008295807FA4DFDADFCF9108959091F50101
:10099000981778F09091F601691758F46093F30175
:1009A0008093F401ECEEF1E0E80FF11D8081860FF9
:1009B000D7DF08958091F4018F5F8093F401109246
:1009C000F3019091F501981718F481E08093F401F8
:1009D0008091F401ECEEF1E0E80FF11D8081C0DFC1
:1009E00008959091F501981750F01092F3018093BB
:1009F000F401ECEEF1E0E80FF11D8081B1DF089524
:100A000081E0AEDF81E0EDDF08959FEF97BB97BBFC
:100A10008093F7014093F6016093F501633040F055
:100A20004F70842F80578093EF0140534093F00123
:100A30008FEF90E7A2E081509040A040E1F700C026
:100A400000008091F701883019F488E389DF2BC01A
:100A5000843049F580E33BDF71DF8FEF90E7A2E060
:100A600081509040A040E1F700C0000080E32FDFFC
:100A700065DFAFE8B1E01197F1F700C0000080E357
:100A800026DF5CDF8FE891E00197F1F700C00000FE
:100A900080E21DDF53DFAFE8B1E01197F1F700C04E
:100AA000000088E25DDF8FE05BDFAADF0895CF936F
:100AB000C82F23DF8091F701883019F4C8BB47DFC6
:100AC0000AC0843041F48C2F02DF41DF8C2F8295E5
:100AD000807FFDDE3CDFCF910895CF93C82F9091AA
:100AE000F6018091F301891718F4CA3021F40BC084
:100AF00061DFCA3049F08C2FDADF8091F3018F5F1C
:100B00008093F30101C056DFCF910895BF92CF9239
:100B1000DF92EF92FF920F931F93CF93DF936B01BE
:100B20007C01C42F442311F101E010E0D1E0BB248B
:100B30004C2F50E041505040C80102C0880F991F0F
:100B40004A95E2F7AC01662757FD6095762F4C2158
:100B50005D216E217F218D2F4115510561057105A4
:100B600009F48B2D805DB9DFC15011F7DF91CF9172
:100B70001F910F91FF90EF90DF90CF90BF9008955D
:100B80001F93CF93DF93CDB7DEB72A970FB6F894B4
:100B9000DEBF0FBECDBFDC01CB010097A105B105C3
:100BA00019F0442369F435C0442399F1FE013196CC
:100BB00010E011921F5F141701F11A30D1F71DC018
:100BC000FE01319610E00097A105B10561F0282FD4
:100BD0002F702083689413F8B695A79597958795FD
:100BE0001694D1F703C04B3030F410821F5F31965A
:100BF000141749F702C0112361F0FE01E10FF11D46
:100C000080818A3010F0895C01C0805D66DF115000
:100C1000A1F72A960FB6F894DEBF0FBECDBFDF91C5
:100C2000CF911F9108958F929F92AF92BF92EF92B2
:100C3000FF920F931F93CF93DF93CDB7DEB72A9721
:100C40000FB6F894DEBF0FBECDBFDC01CB01042F81
:100C50000097A105B10519F0442371F441C0442364
:100C600009F43EC0FE01319610E011921F5F10178B
:100C700079F11A30D1F72CC07E010894E11CF11CE7
:100C800010E00F2EFAE08F2EF0E09F2EF0E0AF2E56
:100C9000F0E0BF2EF02D0097A105B10561F0BC0179
:100CA000CD01A5019401EBD2F7016083822F932F30
:100CB000A42FB52F04C00B3048F4F70110821F5F3A
:100CC0000894E11CF11C101731F702C0112341F008
:100CD000FE01E10FF11D8081805DFFDE1150C1F743
:100CE0002A960FB6F894DEBF0FBECDBFDF91CF912D
:100CF0001F910F91FF90EF90BF90AF909F908F90BA
:100D00000895AF92BF92CF92DF92EF92FF920F932E
:100D10001F93CF93DF93B82E6B018091F5018B1554
:100D200010F4BB24B3948CE01BDED6018C91882395
:100D3000B9F1D0E006EF11E0AA248B2D52DEF801C4
:100D400080818823E9F0ED2EFF24F601EE0DFF1DD2
:100D50008081882391F1CA2D7F01BFDECF5FD8014A
:100D60008C91C81768F4F701EC0FF11D808188237E
:100D7000A1F780E2B2DECF5FF8018081C817C8F327
:100D80008FE39DE0A3E081509040A040E1F700C0D8
:100D90000000DF5FF601ED0FF11D8081882369F609
:100DA0008EE0DEDDDF91CF911F910F91FF90EF90EC
:100DB000DF90CF90BF90AF900895CA2DDACFCF9338
:100DC000DF93EC018881882329F0219686DE8991C2
:100DD0008823E1F7DF91CF9108955F926F927F9220
:100DE0008F929F92AF92BF92CF92DF92EF92FF923B
:100DF0000F931F93CF93DF93CDB7DEB70F2EF2E1A2
:100E0000CF2EDD24F02DCC0EDD1ED601ED91FD910F
:100E10006D018081882309F4F1C08F015524689405
:100E200054F899249A948824853209F0DBC058013B
:100E30000894A11CB11CF8018181982F90539A301D
:100E400080F43296182D110F912F990F990F190FC9
:100E50008053180F5F018191982F90539A3098F327
:100E600001C0192D90E085978435910508F0BCC02C
:100E7000835E9F4F8F939F93089586010E5F1F4F50
:100E8000D6018C912ADE6801AFC0EE24FF2468945D
:100E9000E1F8EC0CFD1CF601C080D180DD2034F4BB
:100EA000D094C194D108D3948DE217DEB60188277F
:100EB00077FD8095982F412FB6DE670195C0662497
:100EC0007724689462F86C0C7D1CD601CD90DD907F
:100ED000ED90FC901397FF2054F4F094E094D0949C
:100EE000C094C11CD11CE11CF11C8DE2F6DDC701D0
:100EF000B601412F98DE630177C0EE24FF24689489
:100F0000E1F8EC0CFD1CF60180819181BC0180E0D0
:100F100090E0412F88DE670167C0EE24FF246894CB
:100F2000E2F8EC0CFD1CD6016D917D918D919C91A8
:100F3000412F79DE670158C0EE24FF246894E1F860
:100F4000EC0CFD1CF60180819181BC0180E090E0F9
:100F5000412F16DE670148C0EE24FF246894E2F8B2
:100F6000EC0CFD1CD6016D917D918D919C91412FD2
:100F700007DE670139C0EE24FF246894E1F8EC0C29
:100F8000FD1CF601808191811F3F09F4152DBC01E4
:100F900080E090E0412FBADD670126C0EE24FF24F7
:100FA0006894E2F8EC0CFD1CD6016D917D918D9159
:100FB0009C9113971F3F09F4152D412FA7DD670161
:100FC00013C0E4E0F0E0CE0EDF1E0EC0F60182E0BA
:100FD00090E0C80ED91E80819181F1DE05C085E2C6
:100FE0007CDD02C07ADD580185010F5F1F4FD501FE
:100FF00011968C911197882309F016CFDF91CF912C
:101000001F910F91FF90EF90DF90CF90BF90AF9026
:101010009F908F907F906F905F90089570D088F030
:101020009F5790F0B92F9927B751A0F0D1F0660FD4
:10103000771F881F991F1AF0BA95C9F712C0B130EF
:1010400081F077D0B1E0089574C0672F782F88279A
:10105000B85F39F0B93FCCF3869577956795B3952E
:10106000D9F73EF490958095709561957F4F8F4F9D
:101070009F4F0895E89409C097FB3EF490958095A2
:10108000709561957F4F8F4F9F4F9923A9F0F92F4E
:1010900096E9BB279395F695879577956795B795CC
:1010A000F111F8CFFAF4BB0F11F460FF1BC06F5FB2
:1010B0007F4F8F4F9F4F16C0882311F096E911C0C4
:1010C000772321F09EE8872F762F05C0662371F0E5
:1010D00096E8862F70E060E02AF09A95660F771FF9
:1010E000881FDAF7880F9695879597F9089557FD29
:1010F0009058440F551F59F05F3F71F04795880F86
:1011000097FB991F61F09F3F79F08795089512161C
:1011100013061406551FF2CF4695F1DF08C01616C8
:1011200017061806991FF1CF869571056105089479
:101130000895E894BB2766277727CB0197F9089590
:101140000BD078C069D028F06ED018F0952309F044
:101150005AC05FC01124EECFCADFA0F3959FD1F330
:10116000950F50E0551F629FF001729FBB27F00D55
:10117000B11D639FAA27F00DB11DAA1F649F6627AA
:10118000B00DA11D661F829F2227B00DA11D621FF9
:10119000739FB00DA11D621F839FA00D611D221FB3
:1011A000749F3327A00D611D231F849F600D211D97
:1011B000822F762F6A2F11249F5750408AF0E1F03A
:1011C00088234AF0EE0FFF1FBB1F661F771F881F83
:1011D00091505040A9F79E3F510570F014C0AACF1E
:1011E0005F3FECF3983EDCF3869577956795B7956E
:1011F000F795E7959F5FC1F7FE2B880F911D969598
:10120000879597F9089597F99F6780E870E060E007
:1012100008959FEF80EC089500240A94161617068F
:1012200018060906089500240A94121613061406D7
:1012300005060895092E0394000C11F4882352F03A
:10124000BB0F40F4BF2B11F460FF04C06F5F7F4FF2
:101250008F4F9F4F0895AA1BBB1B51E107C0AA1FC8
:10126000BB1FA617B70710F0A61BB70B881F991F47
:101270005A95A9F780959095BC01CD010895A1E2FA
:101280001A2EAA1BBB1BFD010DC0AA1FBB1FEE1F00
:10129000FF1FA217B307E407F50720F0A21BB30B4B
:1012A000E40BF50B661F771F881F991F1A9469F7C7
:1012B00060957095809590959B01AC01BD01CF0123
:0612C0000895F894FFCF31
:1012C6002020202053657474696E677320202020C7
:1012D6000020202020202020202020202020202028
:1012E60020003C25733E002044697374203D202570
:1012F60033642E2531642000434D00496E002020C2
:1013060044697374616E636520556E6974002020AC
:10131600202020203C434D3E20202020200020205D
:1013260020203C496E636865733E00202044697343
:1013360074616E636520556E6974200A2020202032
:1013460055706461746564202020202000202044AC
:101356006973706C6179205374796C652000202064
:10136600203C20426967206E6F2E3E202020002000
:10137600203C20536D616C6C206E6F2E3E20002049
:1013860020446973706C6179205374796C65200A06
:101396002020202055706461746564202020202060
:1013A60000202020204578706C6F7265200A20206E
:1013B600202044697374616E6365001F000000009D
:1013C6001F1F1F1F1F1F0000001F1F1F1F1F1F1F84
:1013D6001F1E1C00000000001F1F1F1F1F1F1F1FB6
:1013E6001F0F071C1E1F1F1F1F1F1F1F1F1F000071
:1013F600000000070F1F1F1F1F1F1F0120446973D6
:1014060074616E636520556E6974000020446973CB
:10141600706C6179205374796C65000000000000DF
:1014260000000000000000000000000000000000B6
:1014360000000000000000000000000000000000A6
:101446000000000000000000000000008080C09046
:02145600D000C4
:00000001FF
